{
  "address": "0x9A676e781A523b5d0C0e43731313A708CB607508",
  "abi": [
    {
      "inputs": [],
      "stateMutability": "nonpayable",
      "type": "constructor"
    },
    {
      "anonymous": false,
      "inputs": [
        {
          "indexed": true,
          "internalType": "address",
          "name": "owner",
          "type": "address"
        },
        {
          "indexed": true,
          "internalType": "address",
          "name": "approved",
          "type": "address"
        },
        {
          "indexed": true,
          "internalType": "uint256",
          "name": "tokenId",
          "type": "uint256"
        }
      ],
      "name": "Approval",
      "type": "event"
    },
    {
      "anonymous": false,
      "inputs": [
        {
          "indexed": true,
          "internalType": "address",
          "name": "owner",
          "type": "address"
        },
        {
          "indexed": true,
          "internalType": "address",
          "name": "operator",
          "type": "address"
        },
        {
          "indexed": false,
          "internalType": "bool",
          "name": "approved",
          "type": "bool"
        }
      ],
      "name": "ApprovalForAll",
      "type": "event"
    },
    {
      "anonymous": false,
      "inputs": [
        {
          "indexed": true,
          "internalType": "address",
          "name": "sender",
          "type": "address"
        },
        {
          "indexed": true,
          "internalType": "uint256",
          "name": "donationId",
          "type": "uint256"
        },
        {
          "indexed": false,
          "internalType": "uint256",
          "name": "amount",
          "type": "uint256"
        },
        {
          "indexed": false,
          "internalType": "uint256",
          "name": "timestamp",
          "type": "uint256"
        }
      ],
      "name": "NewDonation",
      "type": "event"
    },
    {
      "anonymous": false,
      "inputs": [
        {
          "indexed": true,
          "internalType": "address",
          "name": "previousOwner",
          "type": "address"
        },
        {
          "indexed": true,
          "internalType": "address",
          "name": "newOwner",
          "type": "address"
        }
      ],
      "name": "OwnershipTransferred",
      "type": "event"
    },
    {
      "anonymous": false,
      "inputs": [
        {
          "indexed": true,
          "internalType": "address",
          "name": "from",
          "type": "address"
        },
        {
          "indexed": true,
          "internalType": "address",
          "name": "to",
          "type": "address"
        },
        {
          "indexed": true,
          "internalType": "uint256",
          "name": "tokenId",
          "type": "uint256"
        }
      ],
      "name": "Transfer",
      "type": "event"
    },
    {
      "inputs": [
        {
          "internalType": "address",
          "name": "to",
          "type": "address"
        },
        {
          "internalType": "uint256",
          "name": "tokenId",
          "type": "uint256"
        }
      ],
      "name": "approve",
      "outputs": [],
      "stateMutability": "nonpayable",
      "type": "function"
    },
    {
      "inputs": [
        {
          "internalType": "address",
          "name": "owner",
          "type": "address"
        }
      ],
      "name": "balanceOf",
      "outputs": [
        {
          "internalType": "uint256",
          "name": "",
          "type": "uint256"
        }
      ],
      "stateMutability": "view",
      "type": "function"
    },
    {
      "inputs": [],
      "name": "donate",
      "outputs": [],
      "stateMutability": "payable",
      "type": "function"
    },
    {
      "inputs": [
        {
          "internalType": "uint256",
          "name": "",
          "type": "uint256"
        }
      ],
      "name": "donationExists",
      "outputs": [
        {
          "internalType": "bool",
          "name": "",
          "type": "bool"
        }
      ],
      "stateMutability": "view",
      "type": "function"
    },
    {
      "inputs": [
        {
          "internalType": "uint256",
          "name": "",
          "type": "uint256"
        }
      ],
      "name": "donations",
      "outputs": [
        {
          "internalType": "uint256",
          "name": "amount",
          "type": "uint256"
        },
        {
          "internalType": "uint256",
          "name": "timestamp",
          "type": "uint256"
        }
      ],
      "stateMutability": "view",
      "type": "function"
    },
    {
      "inputs": [
        {
          "internalType": "uint256",
          "name": "tokenId",
          "type": "uint256"
        }
      ],
      "name": "getApproved",
      "outputs": [
        {
          "internalType": "address",
          "name": "",
          "type": "address"
        }
      ],
      "stateMutability": "view",
      "type": "function"
    },
    {
      "inputs": [
        {
          "internalType": "uint256",
          "name": "donationId",
          "type": "uint256"
        }
      ],
      "name": "getDonationDetails",
      "outputs": [
        {
          "internalType": "uint256",
          "name": "",
          "type": "uint256"
        },
        {
          "internalType": "uint256",
          "name": "",
          "type": "uint256"
        }
      ],
      "stateMutability": "view",
      "type": "function"
    },
    {
      "inputs": [],
      "name": "getPrice",
      "outputs": [
        {
          "internalType": "uint256",
          "name": "",
          "type": "uint256"
        }
      ],
      "stateMutability": "view",
      "type": "function"
    },
    {
      "inputs": [
        {
          "internalType": "address",
          "name": "owner",
          "type": "address"
        },
        {
          "internalType": "address",
          "name": "operator",
          "type": "address"
        }
      ],
      "name": "isApprovedForAll",
      "outputs": [
        {
          "internalType": "bool",
          "name": "",
          "type": "bool"
        }
      ],
      "stateMutability": "view",
      "type": "function"
    },
    {
      "inputs": [],
      "name": "name",
      "outputs": [
        {
          "internalType": "string",
          "name": "",
          "type": "string"
        }
      ],
      "stateMutability": "view",
      "type": "function"
    },
    {
      "inputs": [],
      "name": "nbDonationsTotal",
      "outputs": [
        {
          "internalType": "uint256",
          "name": "",
          "type": "uint256"
        }
      ],
      "stateMutability": "view",
      "type": "function"
    },
    {
      "inputs": [],
      "name": "owner",
      "outputs": [
        {
          "internalType": "address",
          "name": "",
          "type": "address"
        }
      ],
      "stateMutability": "view",
      "type": "function"
    },
    {
      "inputs": [
        {
          "internalType": "uint256",
          "name": "tokenId",
          "type": "uint256"
        }
      ],
      "name": "ownerOf",
      "outputs": [
        {
          "internalType": "address",
          "name": "",
          "type": "address"
        }
      ],
      "stateMutability": "view",
      "type": "function"
    },
    {
      "inputs": [],
      "name": "renounceOwnership",
      "outputs": [],
      "stateMutability": "nonpayable",
      "type": "function"
    },
    {
      "inputs": [
        {
          "internalType": "address",
          "name": "from",
          "type": "address"
        },
        {
          "internalType": "address",
          "name": "to",
          "type": "address"
        },
        {
          "internalType": "uint256",
          "name": "tokenId",
          "type": "uint256"
        }
      ],
      "name": "safeTransferFrom",
      "outputs": [],
      "stateMutability": "nonpayable",
      "type": "function"
    },
    {
      "inputs": [
        {
          "internalType": "address",
          "name": "from",
          "type": "address"
        },
        {
          "internalType": "address",
          "name": "to",
          "type": "address"
        },
        {
          "internalType": "uint256",
          "name": "tokenId",
          "type": "uint256"
        },
        {
          "internalType": "bytes",
          "name": "data",
          "type": "bytes"
        }
      ],
      "name": "safeTransferFrom",
      "outputs": [],
      "stateMutability": "nonpayable",
      "type": "function"
    },
    {
      "inputs": [
        {
          "internalType": "address",
          "name": "operator",
          "type": "address"
        },
        {
          "internalType": "bool",
          "name": "approved",
          "type": "bool"
        }
      ],
      "name": "setApprovalForAll",
      "outputs": [],
      "stateMutability": "nonpayable",
      "type": "function"
    },
    {
      "inputs": [
        {
          "internalType": "uint256",
          "name": "_newPrice",
          "type": "uint256"
        }
      ],
      "name": "setPrice",
      "outputs": [],
      "stateMutability": "nonpayable",
      "type": "function"
    },
    {
      "inputs": [
        {
          "internalType": "bytes4",
          "name": "interfaceId",
          "type": "bytes4"
        }
      ],
      "name": "supportsInterface",
      "outputs": [
        {
          "internalType": "bool",
          "name": "",
          "type": "bool"
        }
      ],
      "stateMutability": "view",
      "type": "function"
    },
    {
      "inputs": [],
      "name": "symbol",
      "outputs": [
        {
          "internalType": "string",
          "name": "",
          "type": "string"
        }
      ],
      "stateMutability": "view",
      "type": "function"
    },
    {
      "inputs": [
        {
          "internalType": "uint256",
          "name": "index",
          "type": "uint256"
        }
      ],
      "name": "tokenByIndex",
      "outputs": [
        {
          "internalType": "uint256",
          "name": "",
          "type": "uint256"
        }
      ],
      "stateMutability": "view",
      "type": "function"
    },
    {
      "inputs": [
        {
          "internalType": "address",
          "name": "owner",
          "type": "address"
        },
        {
          "internalType": "uint256",
          "name": "index",
          "type": "uint256"
        }
      ],
      "name": "tokenOfOwnerByIndex",
      "outputs": [
        {
          "internalType": "uint256",
          "name": "",
          "type": "uint256"
        }
      ],
      "stateMutability": "view",
      "type": "function"
    },
    {
      "inputs": [
        {
          "internalType": "uint256",
          "name": "tokenId",
          "type": "uint256"
        }
      ],
      "name": "tokenURI",
      "outputs": [
        {
          "internalType": "string",
          "name": "",
          "type": "string"
        }
      ],
      "stateMutability": "view",
      "type": "function"
    },
    {
      "inputs": [],
      "name": "totalSupply",
      "outputs": [
        {
          "internalType": "uint256",
          "name": "",
          "type": "uint256"
        }
      ],
      "stateMutability": "view",
      "type": "function"
    },
    {
      "inputs": [
        {
          "internalType": "address",
          "name": "from",
          "type": "address"
        },
        {
          "internalType": "address",
          "name": "to",
          "type": "address"
        },
        {
          "internalType": "uint256",
          "name": "tokenId",
          "type": "uint256"
        }
      ],
      "name": "transferFrom",
      "outputs": [],
      "stateMutability": "nonpayable",
      "type": "function"
    },
    {
      "inputs": [
        {
          "internalType": "address",
          "name": "newOwner",
          "type": "address"
        }
      ],
      "name": "transferOwnership",
      "outputs": [],
      "stateMutability": "nonpayable",
      "type": "function"
    },
    {
      "inputs": [
        {
          "internalType": "address",
          "name": "_owner",
          "type": "address"
        }
      ],
      "name": "walletOfOwner",
      "outputs": [
        {
          "internalType": "uint256[]",
          "name": "",
          "type": "uint256[]"
        }
      ],
      "stateMutability": "view",
      "type": "function"
    },
    {
      "inputs": [],
      "name": "withdraw",
      "outputs": [],
      "stateMutability": "payable",
      "type": "function"
    }
  ],
  "transactionHash": "0x162fd4549cdb775b66cd0c862de0b57e43d4906fb4d6e7f678f60f79225bf4d5",
  "args": [],
  "numDeployments": 1,
  "solcInputHash": "2000e56a2e12e7154803044464fa2a34",
  "bytecode": "0x6080604052652d79883d2000600f553480156200001a575f80fd5b506040518060400160405280600581526020017f526f4465630000000000000000000000000000000000000000000000000000008152506040518060400160405280600381526020017f5244430000000000000000000000000000000000000000000000000000000000815250815f908162000097919062000408565b508060019081620000a9919062000408565b505050620000cc620000c0620000da60201b60201c565b620000e160201b60201c565b6001600b81905550620004ec565b5f33905090565b5f600a5f9054906101000a900473ffffffffffffffffffffffffffffffffffffffff16905081600a5f6101000a81548173ffffffffffffffffffffffffffffffffffffffff021916908373ffffffffffffffffffffffffffffffffffffffff1602179055508173ffffffffffffffffffffffffffffffffffffffff168173ffffffffffffffffffffffffffffffffffffffff167f8be0079c531659141344cd1fd0a4f28419497f9722a3daafe3b4186f6b6457e060405160405180910390a35050565b5f81519050919050565b7f4e487b71000000000000000000000000000000000000000000000000000000005f52604160045260245ffd5b7f4e487b71000000000000000000000000000000000000000000000000000000005f52602260045260245ffd5b5f60028204905060018216806200022057607f821691505b602082108103620002365762000235620001db565b5b50919050565b5f819050815f5260205f209050919050565b5f6020601f8301049050919050565b5f82821b905092915050565b5f600883026200029a7fffffffffffffffffffffffffffffffffffffffffffffffffffffffffffffffff826200025d565b620002a686836200025d565b95508019841693508086168417925050509392505050565b5f819050919050565b5f819050919050565b5f620002f0620002ea620002e484620002be565b620002c7565b620002be565b9050919050565b5f819050919050565b6200030b83620002d0565b620003236200031a82620002f7565b84845462000269565b825550505050565b5f90565b620003396200032b565b6200034681848462000300565b505050565b5b818110156200036d57620003615f826200032f565b6001810190506200034c565b5050565b601f821115620003bc5762000386816200023c565b62000391846200024e565b81016020851015620003a1578190505b620003b9620003b0856200024e565b8301826200034b565b50505b505050565b5f82821c905092915050565b5f620003de5f1984600802620003c1565b1980831691505092915050565b5f620003f88383620003cd565b9150826002028217905092915050565b6200041382620001a4565b67ffffffffffffffff8111156200042f576200042e620001ae565b5b6200043b825462000208565b6200044882828562000371565b5f60209050601f8311600181146200047e575f841562000469578287015190505b620004758582620003eb565b865550620004e4565b601f1984166200048e866200023c565b5f5b82811015620004b75784890151825560018201915060208501945060208101905062000490565b86831015620004d75784890151620004d3601f891682620003cd565b8355505b6001600288020188555050505b505050505050565b613a4e80620004fa5f395ff3fe6080604052600436106101b6575f3560e01c8063715018a6116100eb578063c87b56dd11610089578063eb564d3511610063578063eb564d351461061e578063ed88c68e1461065b578063f2fde38b14610665578063f8626af81461068d576101b6565b8063c87b56dd1461057c578063e731bfdd146105b8578063e985e9c5146105e2576101b6565b806395d89b41116100c557806395d89b41146104d857806398d5fdca14610502578063a22cb4651461052c578063b88d4fde14610554576101b6565b8063715018a6146104705780638da5cb5b1461048657806391b7f5ed146104b0576101b6565b80632f745c5911610158578063438b630011610132578063438b6300146103805780634f6ccce7146103bc5780636352211e146103f857806370a0823114610434576101b6565b80632f745c59146103125780633ccfd60b1461034e57806342842e0e14610358576101b6565b8063095ea7b311610194578063095ea7b31461025c57806318160ddd1461028457806323b872dd146102ae57806324f1306f146102d6576101b6565b806301ffc9a7146101ba57806306fdde03146101f6578063081812fc14610220575b5f80fd5b3480156101c5575f80fd5b506101e060048036038101906101db9190612739565b6106ca565b6040516101ed919061277e565b60405180910390f35b348015610201575f80fd5b5061020a6106db565b6040516102179190612821565b60405180910390f35b34801561022b575f80fd5b5061024660048036038101906102419190612874565b61076a565b60405161025391906128de565b60405180910390f35b348015610267575f80fd5b50610282600480360381019061027d9190612921565b6107ac565b005b34801561028f575f80fd5b506102986108c2565b6040516102a5919061296e565b60405180910390f35b3480156102b9575f80fd5b506102d460048036038101906102cf9190612987565b6108ce565b005b3480156102e1575f80fd5b506102fc60048036038101906102f79190612874565b61092e565b604051610309919061277e565b60405180910390f35b34801561031d575f80fd5b5061033860048036038101906103339190612921565b61094b565b604051610345919061296e565b60405180910390f35b6103566109eb565b005b348015610363575f80fd5b5061037e60048036038101906103799190612987565b610a9e565b005b34801561038b575f80fd5b506103a660048036038101906103a191906129d7565b610abd565b6040516103b39190612ab9565b60405180910390f35b3480156103c7575f80fd5b506103e260048036038101906103dd9190612874565b610b68565b6040516103ef919061296e565b60405180910390f35b348015610403575f80fd5b5061041e60048036038101906104199190612874565b610bd6565b60405161042b91906128de565b60405180910390f35b34801561043f575f80fd5b5061045a600480360381019061045591906129d7565b610c5a565b604051610467919061296e565b60405180910390f35b34801561047b575f80fd5b50610484610d0e565b005b348015610491575f80fd5b5061049a610d21565b6040516104a791906128de565b60405180910390f35b3480156104bb575f80fd5b506104d660048036038101906104d19190612874565b610d49565b005b3480156104e3575f80fd5b506104ec610d5b565b6040516104f99190612821565b60405180910390f35b34801561050d575f80fd5b50610516610deb565b604051610523919061296e565b60405180910390f35b348015610537575f80fd5b50610552600480360381019061054d9190612b03565b610df4565b005b34801561055f575f80fd5b5061057a60048036038101906105759190612c6d565b610e0a565b005b348015610587575f80fd5b506105a2600480360381019061059d9190612874565b610e6c565b6040516105af9190612821565b60405180910390f35b3480156105c3575f80fd5b506105cc610ed1565b6040516105d9919061296e565b60405180910390f35b3480156105ed575f80fd5b5061060860048036038101906106039190612ced565b610ee1565b604051610615919061277e565b60405180910390f35b348015610629575f80fd5b50610644600480360381019061063f9190612874565b610f6f565b604051610652929190612d2b565b60405180910390f35b610663611013565b005b348015610670575f80fd5b5061068b600480360381019061068691906129d7565b611131565b005b348015610698575f80fd5b506106b360048036038101906106ae9190612874565b6111b3565b6040516106c1929190612d2b565b60405180910390f35b5f6106d4826111d3565b9050919050565b60605f80546106e990612d7f565b80601f016020809104026020016040519081016040528092919081815260200182805461071590612d7f565b80156107605780601f1061073757610100808354040283529160200191610760565b820191905f5260205f20905b81548152906001019060200180831161074357829003601f168201915b5050505050905090565b5f6107748261124c565b60045f8381526020019081526020015f205f9054906101000a900473ffffffffffffffffffffffffffffffffffffffff169050919050565b5f6107b682610bd6565b90508073ffffffffffffffffffffffffffffffffffffffff168373ffffffffffffffffffffffffffffffffffffffff1603610826576040517f08c379a000000000000000000000000000000000000000000000000000000000815260040161081d90612e1f565b60405180910390fd5b8073ffffffffffffffffffffffffffffffffffffffff16610845611297565b73ffffffffffffffffffffffffffffffffffffffff16148061087457506108738161086e611297565b610ee1565b5b6108b3576040517f08c379a00000000000000000000000000000000000000000000000000000000081526004016108aa90612ead565b60405180910390fd5b6108bd838361129e565b505050565b5f600880549050905090565b6108df6108d9611297565b82611354565b61091e576040517f08c379a000000000000000000000000000000000000000000000000000000000815260040161091590612f3b565b60405180910390fd5b6109298383836113e8565b505050565b600e602052805f5260405f205f915054906101000a900460ff1681565b5f61095583610c5a565b8210610996576040517f08c379a000000000000000000000000000000000000000000000000000000000815260040161098d90612fc9565b60405180910390fd5b60065f8473ffffffffffffffffffffffffffffffffffffffff1673ffffffffffffffffffffffffffffffffffffffff1681526020019081526020015f205f8381526020019081526020015f2054905092915050565b6109f36116d4565b5f3373ffffffffffffffffffffffffffffffffffffffff1647604051610a1890613014565b5f6040518083038185875af1925050503d805f8114610a52576040519150601f19603f3d011682016040523d82523d5f602084013e610a57565b606091505b5050905080610a9b576040517f08c379a0000000000000000000000000000000000000000000000000000000008152600401610a9290613072565b60405180910390fd5b50565b610ab883838360405180602001604052805f815250610e0a565b505050565b60605f610ac983610c5a565b90505f8167ffffffffffffffff811115610ae657610ae5612b49565b5b604051908082528060200260200182016040528015610b145781602001602082028036833780820191505090505b5090505f5b82811015610b5d57610b2b858261094b565b828281518110610b3e57610b3d613090565b5b6020026020010181815250508080610b55906130ea565b915050610b19565b508092505050919050565b5f610b716108c2565b8210610bb2576040517f08c379a0000000000000000000000000000000000000000000000000000000008152600401610ba9906131a1565b60405180910390fd5b60088281548110610bc657610bc5613090565b5b905f5260205f2001549050919050565b5f80610be183611752565b90505f73ffffffffffffffffffffffffffffffffffffffff168173ffffffffffffffffffffffffffffffffffffffff1603610c51576040517f08c379a0000000000000000000000000000000000000000000000000000000008152600401610c4890613209565b60405180910390fd5b80915050919050565b5f8073ffffffffffffffffffffffffffffffffffffffff168273ffffffffffffffffffffffffffffffffffffffff1603610cc9576040517f08c379a0000000000000000000000000000000000000000000000000000000008152600401610cc090613297565b60405180910390fd5b60035f8373ffffffffffffffffffffffffffffffffffffffff1673ffffffffffffffffffffffffffffffffffffffff1681526020019081526020015f20549050919050565b610d166116d4565b610d1f5f61178b565b565b5f600a5f9054906101000a900473ffffffffffffffffffffffffffffffffffffffff16905090565b610d516116d4565b80600f8190555050565b606060018054610d6a90612d7f565b80601f0160208091040260200160405190810160405280929190818152602001828054610d9690612d7f565b8015610de15780601f10610db857610100808354040283529160200191610de1565b820191905f5260205f20905b815481529060010190602001808311610dc457829003601f168201915b5050505050905090565b5f600f54905090565b610e06610dff611297565b838361184e565b5050565b610e1b610e15611297565b83611354565b610e5a576040517f08c379a0000000000000000000000000000000000000000000000000000000008152600401610e5190612f3b565b60405180910390fd5b610e66848484846119b5565b50505050565b6060610e778261124c565b5f610e80611a11565b90505f815111610e9e5760405180602001604052805f815250610ec9565b80610ea884611a27565b604051602001610eb99291906132ef565b6040516020818303038152906040525b915050919050565b5f610edc600c611af1565b905090565b5f60055f8473ffffffffffffffffffffffffffffffffffffffff1673ffffffffffffffffffffffffffffffffffffffff1681526020019081526020015f205f8373ffffffffffffffffffffffffffffffffffffffff1673ffffffffffffffffffffffffffffffffffffffff1681526020019081526020015f205f9054906101000a900460ff16905092915050565b5f80600e5f8481526020019081526020015f205f9054906101000a900460ff16610fce576040517f08c379a0000000000000000000000000000000000000000000000000000000008152600401610fc59061335c565b60405180910390fd5b5f600d5f8581526020019081526020015f206040518060400160405290815f82015481526020016001820154815250509050805f015181602001519250925050915091565b600f54341015611058576040517f08c379a000000000000000000000000000000000000000000000000000000000815260040161104f906133c4565b60405180910390fd5b5f611063600c611af1565b905061106f3382611afd565b604051806040016040528034815260200142815250600d5f8381526020019081526020015f205f820151815f0155602082015181600101559050506001600e5f8381526020019081526020015f205f6101000a81548160ff0219169083151502179055506110dd600c611b1a565b803373ffffffffffffffffffffffffffffffffffffffff167fab17a5fe3354c66071b173a5b27e11f7a6a419514823eba22f2f408978cba7103442604051611126929190612d2b565b60405180910390a350565b6111396116d4565b5f73ffffffffffffffffffffffffffffffffffffffff168173ffffffffffffffffffffffffffffffffffffffff16036111a7576040517f08c379a000000000000000000000000000000000000000000000000000000000815260040161119e90613452565b60405180910390fd5b6111b08161178b565b50565b600d602052805f5260405f205f91509050805f0154908060010154905082565b5f7f780e9d63000000000000000000000000000000000000000000000000000000007bffffffffffffffffffffffffffffffffffffffffffffffffffffffff1916827bffffffffffffffffffffffffffffffffffffffffffffffffffffffff19161480611245575061124482611b2e565b5b9050919050565b61125581611c0f565b611294576040517f08c379a000000000000000000000000000000000000000000000000000000000815260040161128b90613209565b60405180910390fd5b50565b5f33905090565b8160045f8381526020019081526020015f205f6101000a81548173ffffffffffffffffffffffffffffffffffffffff021916908373ffffffffffffffffffffffffffffffffffffffff160217905550808273ffffffffffffffffffffffffffffffffffffffff1661130e83610bd6565b73ffffffffffffffffffffffffffffffffffffffff167f8c5be1e5ebec7d5bd14f71427d1e84f3dd0314c0f7b2291e5b200ac8c7c3b92560405160405180910390a45050565b5f8061135f83610bd6565b90508073ffffffffffffffffffffffffffffffffffffffff168473ffffffffffffffffffffffffffffffffffffffff1614806113a157506113a08185610ee1565b5b806113df57508373ffffffffffffffffffffffffffffffffffffffff166113c78461076a565b73ffffffffffffffffffffffffffffffffffffffff16145b91505092915050565b8273ffffffffffffffffffffffffffffffffffffffff1661140882610bd6565b73ffffffffffffffffffffffffffffffffffffffff161461145e576040517f08c379a0000000000000000000000000000000000000000000000000000000008152600401611455906134e0565b60405180910390fd5b5f73ffffffffffffffffffffffffffffffffffffffff168273ffffffffffffffffffffffffffffffffffffffff16036114cc576040517f08c379a00000000000000000000000000000000000000000000000000000000081526004016114c39061356e565b60405180910390fd5b6114d98383836001611c4f565b8273ffffffffffffffffffffffffffffffffffffffff166114f982610bd6565b73ffffffffffffffffffffffffffffffffffffffff161461154f576040517f08c379a0000000000000000000000000000000000000000000000000000000008152600401611546906134e0565b60405180910390fd5b60045f8281526020019081526020015f205f6101000a81549073ffffffffffffffffffffffffffffffffffffffff0219169055600160035f8573ffffffffffffffffffffffffffffffffffffffff1673ffffffffffffffffffffffffffffffffffffffff1681526020019081526020015f205f8282540392505081905550600160035f8473ffffffffffffffffffffffffffffffffffffffff1673ffffffffffffffffffffffffffffffffffffffff1681526020019081526020015f205f82825401925050819055508160025f8381526020019081526020015f205f6101000a81548173ffffffffffffffffffffffffffffffffffffffff021916908373ffffffffffffffffffffffffffffffffffffffff160217905550808273ffffffffffffffffffffffffffffffffffffffff168473ffffffffffffffffffffffffffffffffffffffff167fddf252ad1be2c89b69c2b068fc378daa952ba7f163c4a11628f55a4df523b3ef60405160405180910390a46116cf8383836001611ccf565b505050565b6116dc611297565b73ffffffffffffffffffffffffffffffffffffffff166116fa610d21565b73ffffffffffffffffffffffffffffffffffffffff1614611750576040517f08c379a0000000000000000000000000000000000000000000000000000000008152600401611747906135d6565b60405180910390fd5b565b5f60025f8381526020019081526020015f205f9054906101000a900473ffffffffffffffffffffffffffffffffffffffff169050919050565b5f600a5f9054906101000a900473ffffffffffffffffffffffffffffffffffffffff16905081600a5f6101000a81548173ffffffffffffffffffffffffffffffffffffffff021916908373ffffffffffffffffffffffffffffffffffffffff1602179055508173ffffffffffffffffffffffffffffffffffffffff168173ffffffffffffffffffffffffffffffffffffffff167f8be0079c531659141344cd1fd0a4f28419497f9722a3daafe3b4186f6b6457e060405160405180910390a35050565b8173ffffffffffffffffffffffffffffffffffffffff168373ffffffffffffffffffffffffffffffffffffffff16036118bc576040517f08c379a00000000000000000000000000000000000000000000000000000000081526004016118b39061363e565b60405180910390fd5b8060055f8573ffffffffffffffffffffffffffffffffffffffff1673ffffffffffffffffffffffffffffffffffffffff1681526020019081526020015f205f8473ffffffffffffffffffffffffffffffffffffffff1673ffffffffffffffffffffffffffffffffffffffff1681526020019081526020015f205f6101000a81548160ff0219169083151502179055508173ffffffffffffffffffffffffffffffffffffffff168373ffffffffffffffffffffffffffffffffffffffff167f17307eab39ab6107e8899845ad3d59bd9653f200f220920489ca2b5937696c31836040516119a8919061277e565b60405180910390a3505050565b6119c08484846113e8565b6119cc84848484611cd5565b611a0b576040517f08c379a0000000000000000000000000000000000000000000000000000000008152600401611a02906136cc565b60405180910390fd5b50505050565b606060405180602001604052805f815250905090565b60605f6001611a3584611e57565b0190505f8167ffffffffffffffff811115611a5357611a52612b49565b5b6040519080825280601f01601f191660200182016040528015611a855781602001600182028036833780820191505090505b5090505f82602001820190505b600115611ae6578080600190039150507f3031323334353637383961626364656600000000000000000000000000000000600a86061a8153600a8581611adb57611ada6136ea565b5b0494505f8503611a92575b819350505050919050565b5f815f01549050919050565b611b16828260405180602001604052805f815250611fa8565b5050565b6001815f015f828254019250508190555050565b5f7f80ac58cd000000000000000000000000000000000000000000000000000000007bffffffffffffffffffffffffffffffffffffffffffffffffffffffff1916827bffffffffffffffffffffffffffffffffffffffffffffffffffffffff19161480611bf857507f5b5e139f000000000000000000000000000000000000000000000000000000007bffffffffffffffffffffffffffffffffffffffffffffffffffffffff1916827bffffffffffffffffffffffffffffffffffffffffffffffffffffffff1916145b80611c085750611c0782612002565b5b9050919050565b5f8073ffffffffffffffffffffffffffffffffffffffff16611c3083611752565b73ffffffffffffffffffffffffffffffffffffffff1614159050919050565b5f73ffffffffffffffffffffffffffffffffffffffff168473ffffffffffffffffffffffffffffffffffffffff1614611cbd576040517f08c379a0000000000000000000000000000000000000000000000000000000008152600401611cb490613761565b60405180910390fd5b611cc98484848461206b565b50505050565b50505050565b5f611cf58473ffffffffffffffffffffffffffffffffffffffff166121c6565b15611e4a578373ffffffffffffffffffffffffffffffffffffffff1663150b7a02611d1e611297565b8786866040518563ffffffff1660e01b8152600401611d4094939291906137d1565b6020604051808303815f875af1925050508015611d7b57506040513d601f19601f82011682018060405250810190611d78919061382f565b60015b611dfa573d805f8114611da9576040519150601f19603f3d011682016040523d82523d5f602084013e611dae565b606091505b505f815103611df2576040517f08c379a0000000000000000000000000000000000000000000000000000000008152600401611de9906136cc565b60405180910390fd5b805181602001fd5b63150b7a0260e01b7bffffffffffffffffffffffffffffffffffffffffffffffffffffffff1916817bffffffffffffffffffffffffffffffffffffffffffffffffffffffff191614915050611e4f565b600190505b949350505050565b5f805f90507a184f03e93ff9f4daa797ed6e38ed64bf6a1f0100000000000000008310611eb3577a184f03e93ff9f4daa797ed6e38ed64bf6a1f0100000000000000008381611ea957611ea86136ea565b5b0492506040810190505b6d04ee2d6d415b85acef81000000008310611ef0576d04ee2d6d415b85acef81000000008381611ee657611ee56136ea565b5b0492506020810190505b662386f26fc100008310611f1f57662386f26fc100008381611f1557611f146136ea565b5b0492506010810190505b6305f5e1008310611f48576305f5e1008381611f3e57611f3d6136ea565b5b0492506008810190505b6127108310611f6d576127108381611f6357611f626136ea565b5b0492506004810190505b60648310611f905760648381611f8657611f856136ea565b5b0492506002810190505b600a8310611f9f576001810190505b80915050919050565b611fb283836121e8565b611fbe5f848484611cd5565b611ffd576040517f08c379a0000000000000000000000000000000000000000000000000000000008152600401611ff4906136cc565b60405180910390fd5b505050565b5f7f01ffc9a7000000000000000000000000000000000000000000000000000000007bffffffffffffffffffffffffffffffffffffffffffffffffffffffff1916827bffffffffffffffffffffffffffffffffffffffffffffffffffffffff1916149050919050565b612077848484846123fb565b60018111156120bb576040517f08c379a00000000000000000000000000000000000000000000000000000000081526004016120b2906138ca565b60405180910390fd5b5f8290505f73ffffffffffffffffffffffffffffffffffffffff168573ffffffffffffffffffffffffffffffffffffffff1603612100576120fb81612401565b61213f565b8373ffffffffffffffffffffffffffffffffffffffff168573ffffffffffffffffffffffffffffffffffffffff161461213e5761213d8582612445565b5b5b5f73ffffffffffffffffffffffffffffffffffffffff168473ffffffffffffffffffffffffffffffffffffffff16036121805761217b8161259b565b6121bf565b8473ffffffffffffffffffffffffffffffffffffffff168473ffffffffffffffffffffffffffffffffffffffff16146121be576121bd848261265b565b5b5b5050505050565b5f808273ffffffffffffffffffffffffffffffffffffffff163b119050919050565b5f73ffffffffffffffffffffffffffffffffffffffff168273ffffffffffffffffffffffffffffffffffffffff1603612256576040517f08c379a000000000000000000000000000000000000000000000000000000000815260040161224d90613932565b60405180910390fd5b61225f81611c0f565b1561229f576040517f08c379a00000000000000000000000000000000000000000000000000000000081526004016122969061399a565b60405180910390fd5b6122ac5f83836001611c4f565b6122b581611c0f565b156122f5576040517f08c379a00000000000000000000000000000000000000000000000000000000081526004016122ec9061399a565b60405180910390fd5b600160035f8473ffffffffffffffffffffffffffffffffffffffff1673ffffffffffffffffffffffffffffffffffffffff1681526020019081526020015f205f82825401925050819055508160025f8381526020019081526020015f205f6101000a81548173ffffffffffffffffffffffffffffffffffffffff021916908373ffffffffffffffffffffffffffffffffffffffff160217905550808273ffffffffffffffffffffffffffffffffffffffff165f73ffffffffffffffffffffffffffffffffffffffff167fddf252ad1be2c89b69c2b068fc378daa952ba7f163c4a11628f55a4df523b3ef60405160405180910390a46123f75f83836001611ccf565b5050565b50505050565b60088054905060095f8381526020019081526020015f2081905550600881908060018154018082558091505060019003905f5260205f20015f909190919091505550565b5f600161245184610c5a565b61245b91906139b8565b90505f60075f8481526020019081526020015f20549050818114612532575f60065f8673ffffffffffffffffffffffffffffffffffffffff1673ffffffffffffffffffffffffffffffffffffffff1681526020019081526020015f205f8481526020019081526020015f205490508060065f8773ffffffffffffffffffffffffffffffffffffffff1673ffffffffffffffffffffffffffffffffffffffff1681526020019081526020015f205f8481526020019081526020015f20819055508160075f8381526020019081526020015f2081905550505b60075f8481526020019081526020015f205f905560065f8573ffffffffffffffffffffffffffffffffffffffff1673ffffffffffffffffffffffffffffffffffffffff1681526020019081526020015f205f8381526020019081526020015f205f905550505050565b5f60016008805490506125ae91906139b8565b90505f60095f8481526020019081526020015f205490505f600883815481106125da576125d9613090565b5b905f5260205f200154905080600883815481106125fa576125f9613090565b5b905f5260205f2001819055508160095f8381526020019081526020015f208190555060095f8581526020019081526020015f205f90556008805480612642576126416139eb565b5b600190038181905f5260205f20015f9055905550505050565b5f61266583610c5a565b90508160065f8573ffffffffffffffffffffffffffffffffffffffff1673ffffffffffffffffffffffffffffffffffffffff1681526020019081526020015f205f8381526020019081526020015f20819055508060075f8481526020019081526020015f2081905550505050565b5f604051905090565b5f80fd5b5f80fd5b5f7fffffffff0000000000000000000000000000000000000000000000000000000082169050919050565b612718816126e4565b8114612722575f80fd5b50565b5f813590506127338161270f565b92915050565b5f6020828403121561274e5761274d6126dc565b5b5f61275b84828501612725565b91505092915050565b5f8115159050919050565b61277881612764565b82525050565b5f6020820190506127915f83018461276f565b92915050565b5f81519050919050565b5f82825260208201905092915050565b5f5b838110156127ce5780820151818401526020810190506127b3565b5f8484015250505050565b5f601f19601f8301169050919050565b5f6127f382612797565b6127fd81856127a1565b935061280d8185602086016127b1565b612816816127d9565b840191505092915050565b5f6020820190508181035f83015261283981846127e9565b905092915050565b5f819050919050565b61285381612841565b811461285d575f80fd5b50565b5f8135905061286e8161284a565b92915050565b5f60208284031215612889576128886126dc565b5b5f61289684828501612860565b91505092915050565b5f73ffffffffffffffffffffffffffffffffffffffff82169050919050565b5f6128c88261289f565b9050919050565b6128d8816128be565b82525050565b5f6020820190506128f15f8301846128cf565b92915050565b612900816128be565b811461290a575f80fd5b50565b5f8135905061291b816128f7565b92915050565b5f8060408385031215612937576129366126dc565b5b5f6129448582860161290d565b925050602061295585828601612860565b9150509250929050565b61296881612841565b82525050565b5f6020820190506129815f83018461295f565b92915050565b5f805f6060848603121561299e5761299d6126dc565b5b5f6129ab8682870161290d565b93505060206129bc8682870161290d565b92505060406129cd86828701612860565b9150509250925092565b5f602082840312156129ec576129eb6126dc565b5b5f6129f98482850161290d565b91505092915050565b5f81519050919050565b5f82825260208201905092915050565b5f819050602082019050919050565b612a3481612841565b82525050565b5f612a458383612a2b565b60208301905092915050565b5f602082019050919050565b5f612a6782612a02565b612a718185612a0c565b9350612a7c83612a1c565b805f5b83811015612aac578151612a938882612a3a565b9750612a9e83612a51565b925050600181019050612a7f565b5085935050505092915050565b5f6020820190508181035f830152612ad18184612a5d565b905092915050565b612ae281612764565b8114612aec575f80fd5b50565b5f81359050612afd81612ad9565b92915050565b5f8060408385031215612b1957612b186126dc565b5b5f612b268582860161290d565b9250506020612b3785828601612aef565b9150509250929050565b5f80fd5b5f80fd5b7f4e487b71000000000000000000000000000000000000000000000000000000005f52604160045260245ffd5b612b7f826127d9565b810181811067ffffffffffffffff82111715612b9e57612b9d612b49565b5b80604052505050565b5f612bb06126d3565b9050612bbc8282612b76565b919050565b5f67ffffffffffffffff821115612bdb57612bda612b49565b5b612be4826127d9565b9050602081019050919050565b828183375f83830152505050565b5f612c11612c0c84612bc1565b612ba7565b905082815260208101848484011115612c2d57612c2c612b45565b5b612c38848285612bf1565b509392505050565b5f82601f830112612c5457612c53612b41565b5b8135612c64848260208601612bff565b91505092915050565b5f805f8060808587031215612c8557612c846126dc565b5b5f612c928782880161290d565b9450506020612ca38782880161290d565b9350506040612cb487828801612860565b925050606085013567ffffffffffffffff811115612cd557612cd46126e0565b5b612ce187828801612c40565b91505092959194509250565b5f8060408385031215612d0357612d026126dc565b5b5f612d108582860161290d565b9250506020612d218582860161290d565b9150509250929050565b5f604082019050612d3e5f83018561295f565b612d4b602083018461295f565b9392505050565b7f4e487b71000000000000000000000000000000000000000000000000000000005f52602260045260245ffd5b5f6002820490506001821680612d9657607f821691505b602082108103612da957612da8612d52565b5b50919050565b7f4552433732313a20617070726f76616c20746f2063757272656e74206f776e655f8201527f7200000000000000000000000000000000000000000000000000000000000000602082015250565b5f612e096021836127a1565b9150612e1482612daf565b604082019050919050565b5f6020820190508181035f830152612e3681612dfd565b9050919050565b7f4552433732313a20617070726f76652063616c6c6572206973206e6f7420746f5f8201527f6b656e206f776e6572206f7220617070726f76656420666f7220616c6c000000602082015250565b5f612e97603d836127a1565b9150612ea282612e3d565b604082019050919050565b5f6020820190508181035f830152612ec481612e8b565b9050919050565b7f4552433732313a2063616c6c6572206973206e6f7420746f6b656e206f776e655f8201527f72206f7220617070726f76656400000000000000000000000000000000000000602082015250565b5f612f25602d836127a1565b9150612f3082612ecb565b604082019050919050565b5f6020820190508181035f830152612f5281612f19565b9050919050565b7f455243373231456e756d657261626c653a206f776e657220696e646578206f755f8201527f74206f6620626f756e6473000000000000000000000000000000000000000000602082015250565b5f612fb3602b836127a1565b9150612fbe82612f59565b604082019050919050565b5f6020820190508181035f830152612fe081612fa7565b9050919050565b5f81905092915050565b50565b5f612fff5f83612fe7565b915061300a82612ff1565b5f82019050919050565b5f61301e82612ff4565b9150819050919050565b7f5769746864726177616c206661696c65640000000000000000000000000000005f82015250565b5f61305c6011836127a1565b915061306782613028565b602082019050919050565b5f6020820190508181035f83015261308981613050565b9050919050565b7f4e487b71000000000000000000000000000000000000000000000000000000005f52603260045260245ffd5b7f4e487b71000000000000000000000000000000000000000000000000000000005f52601160045260245ffd5b5f6130f482612841565b91507fffffffffffffffffffffffffffffffffffffffffffffffffffffffffffffffff8203613126576131256130bd565b5b600182019050919050565b7f455243373231456e756d657261626c653a20676c6f62616c20696e646578206f5f8201527f7574206f6620626f756e64730000000000000000000000000000000000000000602082015250565b5f61318b602c836127a1565b915061319682613131565b604082019050919050565b5f6020820190508181035f8301526131b88161317f565b9050919050565b7f4552433732313a20696e76616c696420746f6b656e20494400000000000000005f82015250565b5f6131f36018836127a1565b91506131fe826131bf565b602082019050919050565b5f6020820190508181035f830152613220816131e7565b9050919050565b7f4552433732313a2061646472657373207a65726f206973206e6f7420612076615f8201527f6c6964206f776e65720000000000000000000000000000000000000000000000602082015250565b5f6132816029836127a1565b915061328c82613227565b604082019050919050565b5f6020820190508181035f8301526132ae81613275565b9050919050565b5f81905092915050565b5f6132c982612797565b6132d381856132b5565b93506132e38185602086016127b1565b80840191505092915050565b5f6132fa82856132bf565b915061330682846132bf565b91508190509392505050565b7f446f6e6174696f6e20646f6573206e6f742065786973740000000000000000005f82015250565b5f6133466017836127a1565b915061335182613312565b602082019050919050565b5f6020820190508181035f8301526133738161333a565b9050919050565b7f416d6f756e7420746f6f206c6f770000000000000000000000000000000000005f82015250565b5f6133ae600e836127a1565b91506133b98261337a565b602082019050919050565b5f6020820190508181035f8301526133db816133a2565b9050919050565b7f4f776e61626c653a206e6577206f776e657220697320746865207a65726f20615f8201527f6464726573730000000000000000000000000000000000000000000000000000602082015250565b5f61343c6026836127a1565b9150613447826133e2565b604082019050919050565b5f6020820190508181035f83015261346981613430565b9050919050565b7f4552433732313a207472616e736665722066726f6d20696e636f7272656374205f8201527f6f776e6572000000000000000000000000000000000000000000000000000000602082015250565b5f6134ca6025836127a1565b91506134d582613470565b604082019050919050565b5f6020820190508181035f8301526134f7816134be565b9050919050565b7f4552433732313a207472616e7366657220746f20746865207a65726f206164645f8201527f7265737300000000000000000000000000000000000000000000000000000000602082015250565b5f6135586024836127a1565b9150613563826134fe565b604082019050919050565b5f6020820190508181035f8301526135858161354c565b9050919050565b7f4f776e61626c653a2063616c6c6572206973206e6f7420746865206f776e65725f82015250565b5f6135c06020836127a1565b91506135cb8261358c565b602082019050919050565b5f6020820190508181035f8301526135ed816135b4565b9050919050565b7f4552433732313a20617070726f766520746f2063616c6c6572000000000000005f82015250565b5f6136286019836127a1565b9150613633826135f4565b602082019050919050565b5f6020820190508181035f8301526136558161361c565b9050919050565b7f4552433732313a207472616e7366657220746f206e6f6e2045524337323152655f8201527f63656976657220696d706c656d656e7465720000000000000000000000000000602082015250565b5f6136b66032836127a1565b91506136c18261365c565b604082019050919050565b5f6020820190508181035f8301526136e3816136aa565b9050919050565b7f4e487b71000000000000000000000000000000000000000000000000000000005f52601260045260245ffd5b7f5472616e73666572206e6f7420616c6c6f7765640000000000000000000000005f82015250565b5f61374b6014836127a1565b915061375682613717565b602082019050919050565b5f6020820190508181035f8301526137788161373f565b9050919050565b5f81519050919050565b5f82825260208201905092915050565b5f6137a38261377f565b6137ad8185613789565b93506137bd8185602086016127b1565b6137c6816127d9565b840191505092915050565b5f6080820190506137e45f8301876128cf565b6137f160208301866128cf565b6137fe604083018561295f565b81810360608301526138108184613799565b905095945050505050565b5f815190506138298161270f565b92915050565b5f60208284031215613844576138436126dc565b5b5f6138518482850161381b565b91505092915050565b7f455243373231456e756d657261626c653a20636f6e73656375746976652074725f8201527f616e7366657273206e6f7420737570706f727465640000000000000000000000602082015250565b5f6138b46035836127a1565b91506138bf8261385a565b604082019050919050565b5f6020820190508181035f8301526138e1816138a8565b9050919050565b7f4552433732313a206d696e7420746f20746865207a65726f20616464726573735f82015250565b5f61391c6020836127a1565b9150613927826138e8565b602082019050919050565b5f6020820190508181035f83015261394981613910565b9050919050565b7f4552433732313a20746f6b656e20616c7265616479206d696e746564000000005f82015250565b5f613984601c836127a1565b915061398f82613950565b602082019050919050565b5f6020820190508181035f8301526139b181613978565b9050919050565b5f6139c282612841565b91506139cd83612841565b92508282039050818111156139e5576139e46130bd565b5b92915050565b7f4e487b71000000000000000000000000000000000000000000000000000000005f52603160045260245ffdfea264697066735822122090df38467957fec1b7c71784ee3802bc632bcbd373c0b51cfedf731d2c4bd74c64736f6c63430008140033",
  "devdoc": {
    "author": "Thomas for Alyra",
    "details": "Implements donations in exchange for ERC721 tokens.",
    "events": {
      "Approval(address,address,uint256)": {
        "details": "Emitted when `owner` enables `approved` to manage the `tokenId` token."
      },
      "ApprovalForAll(address,address,bool)": {
        "details": "Emitted when `owner` enables or disables (`approved`) `operator` to manage all of its assets."
      },
      "NewDonation(address,uint256,uint256,uint256)": {
        "details": "Event emitted when a new donation is made"
      },
      "Transfer(address,address,uint256)": {
        "details": "Emitted when `tokenId` token is transferred from `from` to `to`."
      }
    },
    "kind": "dev",
    "methods": {
      "approve(address,uint256)": {
        "details": "See {IERC721-approve}."
      },
      "balanceOf(address)": {
        "details": "See {IERC721-balanceOf}."
      },
      "constructor": {
        "details": "Sets the name and symbol of the token"
      },
      "donate()": {
        "details": "Enables external accounts to make a donation and receive an ERC721 token"
      },
      "getApproved(uint256)": {
        "details": "See {IERC721-getApproved}."
      },
      "getDonationDetails(uint256)": {
        "details": "Returns the details of a specific donation"
      },
      "getPrice()": {
        "details": "Returns the current donation price"
      },
      "isApprovedForAll(address,address)": {
        "details": "See {IERC721-isApprovedForAll}."
      },
      "name()": {
        "details": "See {IERC721Metadata-name}."
      },
      "nbDonationsTotal()": {
        "details": "Returns the total number of donations made"
      },
      "owner()": {
        "details": "Returns the address of the current owner."
      },
      "ownerOf(uint256)": {
        "details": "See {IERC721-ownerOf}."
      },
      "renounceOwnership()": {
        "details": "Leaves the contract without owner. It will not be possible to call `onlyOwner` functions. Can only be called by the current owner. NOTE: Renouncing ownership will leave the contract without an owner, thereby disabling any functionality that is only available to the owner."
      },
      "safeTransferFrom(address,address,uint256)": {
        "details": "See {IERC721-safeTransferFrom}."
      },
      "safeTransferFrom(address,address,uint256,bytes)": {
        "details": "See {IERC721-safeTransferFrom}."
      },
      "setApprovalForAll(address,bool)": {
        "details": "See {IERC721-setApprovalForAll}."
      },
      "setPrice(uint256)": {
        "details": "Allows the owner to set a new donation price"
      },
      "supportsInterface(bytes4)": {
        "details": "Overrides supportsInterface to use multiple inheritance in contract"
      },
      "symbol()": {
        "details": "See {IERC721Metadata-symbol}."
      },
      "tokenByIndex(uint256)": {
        "details": "See {IERC721Enumerable-tokenByIndex}."
      },
      "tokenOfOwnerByIndex(address,uint256)": {
        "details": "See {IERC721Enumerable-tokenOfOwnerByIndex}."
      },
      "tokenURI(uint256)": {
        "details": "See {IERC721Metadata-tokenURI}."
      },
      "totalSupply()": {
        "details": "See {IERC721Enumerable-totalSupply}."
      },
      "transferFrom(address,address,uint256)": {
        "details": "See {IERC721-transferFrom}."
      },
      "transferOwnership(address)": {
        "details": "Transfers ownership of the contract to a new account (`newOwner`). Can only be called by the current owner."
      },
      "walletOfOwner(address)": {
        "details": "Returns a list of donation IDs for a given address"
      },
      "withdraw()": {
        "details": "Allows the owner to withdraw all funds from the contract"
      }
    },
    "title": "Donate contract",
    "version": 1
  },
  "userdoc": {
    "kind": "user",
    "methods": {},
    "version": 1
  },
  "storageLayout": {
    "storage": [
      {
        "astId": 231,
        "contract": "contracts/Donate.sol:Donate",
        "label": "_name",
        "offset": 0,
        "slot": "0",
        "type": "t_string_storage"
      },
      {
        "astId": 233,
        "contract": "contracts/Donate.sol:Donate",
        "label": "_symbol",
        "offset": 0,
        "slot": "1",
        "type": "t_string_storage"
      },
      {
        "astId": 237,
        "contract": "contracts/Donate.sol:Donate",
        "label": "_owners",
        "offset": 0,
        "slot": "2",
        "type": "t_mapping(t_uint256,t_address)"
      },
      {
        "astId": 241,
        "contract": "contracts/Donate.sol:Donate",
        "label": "_balances",
        "offset": 0,
        "slot": "3",
        "type": "t_mapping(t_address,t_uint256)"
      },
      {
        "astId": 245,
        "contract": "contracts/Donate.sol:Donate",
        "label": "_tokenApprovals",
        "offset": 0,
        "slot": "4",
        "type": "t_mapping(t_uint256,t_address)"
      },
      {
        "astId": 251,
        "contract": "contracts/Donate.sol:Donate",
        "label": "_operatorApprovals",
        "offset": 0,
        "slot": "5",
        "type": "t_mapping(t_address,t_mapping(t_address,t_bool))"
      },
      {
        "astId": 1281,
        "contract": "contracts/Donate.sol:Donate",
        "label": "_ownedTokens",
        "offset": 0,
        "slot": "6",
        "type": "t_mapping(t_address,t_mapping(t_uint256,t_uint256))"
      },
      {
        "astId": 1285,
        "contract": "contracts/Donate.sol:Donate",
        "label": "_ownedTokensIndex",
        "offset": 0,
        "slot": "7",
        "type": "t_mapping(t_uint256,t_uint256)"
      },
      {
        "astId": 1288,
        "contract": "contracts/Donate.sol:Donate",
        "label": "_allTokens",
        "offset": 0,
        "slot": "8",
        "type": "t_array(t_uint256)dyn_storage"
      },
      {
        "astId": 1292,
        "contract": "contracts/Donate.sol:Donate",
        "label": "_allTokensIndex",
        "offset": 0,
        "slot": "9",
        "type": "t_mapping(t_uint256,t_uint256)"
      },
      {
        "astId": 7,
        "contract": "contracts/Donate.sol:Donate",
        "label": "_owner",
        "offset": 0,
        "slot": "10",
        "type": "t_address"
      },
      {
        "astId": 151,
        "contract": "contracts/Donate.sol:Donate",
        "label": "_status",
        "offset": 0,
        "slot": "11",
        "type": "t_uint256"
      },
      {
        "astId": 3519,
        "contract": "contracts/Donate.sol:Donate",
        "label": "_donationIds",
        "offset": 0,
        "slot": "12",
        "type": "t_struct(Counter)2192_storage"
      },
      {
        "astId": 3529,
        "contract": "contracts/Donate.sol:Donate",
        "label": "donations",
        "offset": 0,
        "slot": "13",
        "type": "t_mapping(t_uint256,t_struct(Donation)3524_storage)"
      },
      {
        "astId": 3533,
        "contract": "contracts/Donate.sol:Donate",
        "label": "donationExists",
        "offset": 0,
        "slot": "14",
        "type": "t_mapping(t_uint256,t_bool)"
      },
      {
        "astId": 3547,
        "contract": "contracts/Donate.sol:Donate",
        "label": "_price",
        "offset": 0,
        "slot": "15",
        "type": "t_uint256"
      }
    ],
    "types": {
      "t_address": {
        "encoding": "inplace",
        "label": "address",
        "numberOfBytes": "20"
      },
      "t_array(t_uint256)dyn_storage": {
        "base": "t_uint256",
        "encoding": "dynamic_array",
        "label": "uint256[]",
        "numberOfBytes": "32"
      },
      "t_bool": {
        "encoding": "inplace",
        "label": "bool",
        "numberOfBytes": "1"
      },
      "t_mapping(t_address,t_bool)": {
        "encoding": "mapping",
        "key": "t_address",
        "label": "mapping(address => bool)",
        "numberOfBytes": "32",
        "value": "t_bool"
      },
      "t_mapping(t_address,t_mapping(t_address,t_bool))": {
        "encoding": "mapping",
        "key": "t_address",
        "label": "mapping(address => mapping(address => bool))",
        "numberOfBytes": "32",
        "value": "t_mapping(t_address,t_bool)"
      },
      "t_mapping(t_address,t_mapping(t_uint256,t_uint256))": {
        "encoding": "mapping",
        "key": "t_address",
        "label": "mapping(address => mapping(uint256 => uint256))",
        "numberOfBytes": "32",
        "value": "t_mapping(t_uint256,t_uint256)"
      },
      "t_mapping(t_address,t_uint256)": {
        "encoding": "mapping",
        "key": "t_address",
        "label": "mapping(address => uint256)",
        "numberOfBytes": "32",
        "value": "t_uint256"
      },
      "t_mapping(t_uint256,t_address)": {
        "encoding": "mapping",
        "key": "t_uint256",
        "label": "mapping(uint256 => address)",
        "numberOfBytes": "32",
        "value": "t_address"
      },
      "t_mapping(t_uint256,t_bool)": {
        "encoding": "mapping",
        "key": "t_uint256",
        "label": "mapping(uint256 => bool)",
        "numberOfBytes": "32",
        "value": "t_bool"
      },
      "t_mapping(t_uint256,t_struct(Donation)3524_storage)": {
        "encoding": "mapping",
        "key": "t_uint256",
        "label": "mapping(uint256 => struct Donate.Donation)",
        "numberOfBytes": "32",
        "value": "t_struct(Donation)3524_storage"
      },
      "t_mapping(t_uint256,t_uint256)": {
        "encoding": "mapping",
        "key": "t_uint256",
        "label": "mapping(uint256 => uint256)",
        "numberOfBytes": "32",
        "value": "t_uint256"
      },
      "t_string_storage": {
        "encoding": "bytes",
        "label": "string",
        "numberOfBytes": "32"
      },
      "t_struct(Counter)2192_storage": {
        "encoding": "inplace",
        "label": "struct Counters.Counter",
        "members": [
          {
            "astId": 2191,
            "contract": "contracts/Donate.sol:Donate",
            "label": "_value",
            "offset": 0,
            "slot": "0",
            "type": "t_uint256"
          }
        ],
        "numberOfBytes": "32"
      },
      "t_struct(Donation)3524_storage": {
        "encoding": "inplace",
        "label": "struct Donate.Donation",
        "members": [
          {
            "astId": 3521,
            "contract": "contracts/Donate.sol:Donate",
            "label": "amount",
            "offset": 0,
            "slot": "0",
            "type": "t_uint256"
          },
          {
            "astId": 3523,
            "contract": "contracts/Donate.sol:Donate",
            "label": "timestamp",
            "offset": 0,
            "slot": "1",
            "type": "t_uint256"
          }
        ],
        "numberOfBytes": "64"
      },
      "t_uint256": {
        "encoding": "inplace",
        "label": "uint256",
        "numberOfBytes": "32"
      }
    }
  }
}