{
  "address": "0x5FbDB2315678afecb367f032d93F642f64180aa3",
  "abi": [
    {
      "inputs": [],
      "stateMutability": "nonpayable",
      "type": "constructor"
    },
    {
      "anonymous": false,
      "inputs": [
        {
          "indexed": true,
          "internalType": "address",
          "name": "owner",
          "type": "address"
        },
        {
          "indexed": true,
          "internalType": "address",
          "name": "approved",
          "type": "address"
        },
        {
          "indexed": true,
          "internalType": "uint256",
          "name": "tokenId",
          "type": "uint256"
        }
      ],
      "name": "Approval",
      "type": "event"
    },
    {
      "anonymous": false,
      "inputs": [
        {
          "indexed": true,
          "internalType": "address",
          "name": "owner",
          "type": "address"
        },
        {
          "indexed": true,
          "internalType": "address",
          "name": "operator",
          "type": "address"
        },
        {
          "indexed": false,
          "internalType": "bool",
          "name": "approved",
          "type": "bool"
        }
      ],
      "name": "ApprovalForAll",
      "type": "event"
    },
    {
      "anonymous": false,
      "inputs": [
        {
          "indexed": true,
          "internalType": "address",
          "name": "sender",
          "type": "address"
        },
        {
          "indexed": true,
          "internalType": "uint256",
          "name": "donationId",
          "type": "uint256"
        },
        {
          "indexed": false,
          "internalType": "uint256",
          "name": "amount",
          "type": "uint256"
        },
        {
          "indexed": false,
          "internalType": "uint256",
          "name": "timestamp",
          "type": "uint256"
        }
      ],
      "name": "NewDonation",
      "type": "event"
    },
    {
      "anonymous": false,
      "inputs": [
        {
          "indexed": true,
          "internalType": "address",
          "name": "previousOwner",
          "type": "address"
        },
        {
          "indexed": true,
          "internalType": "address",
          "name": "newOwner",
          "type": "address"
        }
      ],
      "name": "OwnershipTransferred",
      "type": "event"
    },
    {
      "anonymous": false,
      "inputs": [
        {
          "indexed": true,
          "internalType": "address",
          "name": "from",
          "type": "address"
        },
        {
          "indexed": true,
          "internalType": "address",
          "name": "to",
          "type": "address"
        },
        {
          "indexed": true,
          "internalType": "uint256",
          "name": "tokenId",
          "type": "uint256"
        }
      ],
      "name": "Transfer",
      "type": "event"
    },
    {
      "inputs": [
        {
          "internalType": "address",
          "name": "to",
          "type": "address"
        },
        {
          "internalType": "uint256",
          "name": "tokenId",
          "type": "uint256"
        }
      ],
      "name": "approve",
      "outputs": [],
      "stateMutability": "nonpayable",
      "type": "function"
    },
    {
      "inputs": [
        {
          "internalType": "address",
          "name": "owner",
          "type": "address"
        }
      ],
      "name": "balanceOf",
      "outputs": [
        {
          "internalType": "uint256",
          "name": "",
          "type": "uint256"
        }
      ],
      "stateMutability": "view",
      "type": "function"
    },
    {
      "inputs": [],
      "name": "donate",
      "outputs": [],
      "stateMutability": "payable",
      "type": "function"
    },
    {
      "inputs": [
        {
          "internalType": "uint256",
          "name": "",
          "type": "uint256"
        }
      ],
      "name": "donationExists",
      "outputs": [
        {
          "internalType": "bool",
          "name": "",
          "type": "bool"
        }
      ],
      "stateMutability": "view",
      "type": "function"
    },
    {
      "inputs": [
        {
          "internalType": "uint256",
          "name": "",
          "type": "uint256"
        }
      ],
      "name": "donations",
      "outputs": [
        {
          "internalType": "uint256",
          "name": "amount",
          "type": "uint256"
        },
        {
          "internalType": "uint256",
          "name": "timestamp",
          "type": "uint256"
        }
      ],
      "stateMutability": "view",
      "type": "function"
    },
    {
      "inputs": [
        {
          "internalType": "uint256",
          "name": "tokenId",
          "type": "uint256"
        }
      ],
      "name": "getApproved",
      "outputs": [
        {
          "internalType": "address",
          "name": "",
          "type": "address"
        }
      ],
      "stateMutability": "view",
      "type": "function"
    },
    {
      "inputs": [],
      "name": "getContractBalance",
      "outputs": [
        {
          "internalType": "uint256",
          "name": "",
          "type": "uint256"
        }
      ],
      "stateMutability": "view",
      "type": "function"
    },
    {
      "inputs": [
        {
          "internalType": "uint256",
          "name": "donationId",
          "type": "uint256"
        }
      ],
      "name": "getDonationDetails",
      "outputs": [
        {
          "internalType": "uint256",
          "name": "",
          "type": "uint256"
        },
        {
          "internalType": "uint256",
          "name": "",
          "type": "uint256"
        }
      ],
      "stateMutability": "view",
      "type": "function"
    },
    {
      "inputs": [],
      "name": "getPrice",
      "outputs": [
        {
          "internalType": "uint256",
          "name": "",
          "type": "uint256"
        }
      ],
      "stateMutability": "view",
      "type": "function"
    },
    {
      "inputs": [
        {
          "internalType": "address",
          "name": "owner",
          "type": "address"
        },
        {
          "internalType": "address",
          "name": "operator",
          "type": "address"
        }
      ],
      "name": "isApprovedForAll",
      "outputs": [
        {
          "internalType": "bool",
          "name": "",
          "type": "bool"
        }
      ],
      "stateMutability": "view",
      "type": "function"
    },
    {
      "inputs": [],
      "name": "name",
      "outputs": [
        {
          "internalType": "string",
          "name": "",
          "type": "string"
        }
      ],
      "stateMutability": "view",
      "type": "function"
    },
    {
      "inputs": [],
      "name": "nbDonationsTotal",
      "outputs": [
        {
          "internalType": "uint256",
          "name": "",
          "type": "uint256"
        }
      ],
      "stateMutability": "view",
      "type": "function"
    },
    {
      "inputs": [],
      "name": "owner",
      "outputs": [
        {
          "internalType": "address",
          "name": "",
          "type": "address"
        }
      ],
      "stateMutability": "view",
      "type": "function"
    },
    {
      "inputs": [
        {
          "internalType": "uint256",
          "name": "tokenId",
          "type": "uint256"
        }
      ],
      "name": "ownerOf",
      "outputs": [
        {
          "internalType": "address",
          "name": "",
          "type": "address"
        }
      ],
      "stateMutability": "view",
      "type": "function"
    },
    {
      "inputs": [],
      "name": "renounceOwnership",
      "outputs": [],
      "stateMutability": "nonpayable",
      "type": "function"
    },
    {
      "inputs": [
        {
          "internalType": "address",
          "name": "from",
          "type": "address"
        },
        {
          "internalType": "address",
          "name": "to",
          "type": "address"
        },
        {
          "internalType": "uint256",
          "name": "tokenId",
          "type": "uint256"
        }
      ],
      "name": "safeTransferFrom",
      "outputs": [],
      "stateMutability": "nonpayable",
      "type": "function"
    },
    {
      "inputs": [
        {
          "internalType": "address",
          "name": "from",
          "type": "address"
        },
        {
          "internalType": "address",
          "name": "to",
          "type": "address"
        },
        {
          "internalType": "uint256",
          "name": "tokenId",
          "type": "uint256"
        },
        {
          "internalType": "bytes",
          "name": "data",
          "type": "bytes"
        }
      ],
      "name": "safeTransferFrom",
      "outputs": [],
      "stateMutability": "nonpayable",
      "type": "function"
    },
    {
      "inputs": [
        {
          "internalType": "address",
          "name": "operator",
          "type": "address"
        },
        {
          "internalType": "bool",
          "name": "approved",
          "type": "bool"
        }
      ],
      "name": "setApprovalForAll",
      "outputs": [],
      "stateMutability": "nonpayable",
      "type": "function"
    },
    {
      "inputs": [
        {
          "internalType": "uint256",
          "name": "_newPrice",
          "type": "uint256"
        }
      ],
      "name": "setPrice",
      "outputs": [],
      "stateMutability": "nonpayable",
      "type": "function"
    },
    {
      "inputs": [
        {
          "internalType": "bytes4",
          "name": "interfaceId",
          "type": "bytes4"
        }
      ],
      "name": "supportsInterface",
      "outputs": [
        {
          "internalType": "bool",
          "name": "",
          "type": "bool"
        }
      ],
      "stateMutability": "view",
      "type": "function"
    },
    {
      "inputs": [],
      "name": "symbol",
      "outputs": [
        {
          "internalType": "string",
          "name": "",
          "type": "string"
        }
      ],
      "stateMutability": "view",
      "type": "function"
    },
    {
      "inputs": [
        {
          "internalType": "uint256",
          "name": "index",
          "type": "uint256"
        }
      ],
      "name": "tokenByIndex",
      "outputs": [
        {
          "internalType": "uint256",
          "name": "",
          "type": "uint256"
        }
      ],
      "stateMutability": "view",
      "type": "function"
    },
    {
      "inputs": [
        {
          "internalType": "address",
          "name": "owner",
          "type": "address"
        },
        {
          "internalType": "uint256",
          "name": "index",
          "type": "uint256"
        }
      ],
      "name": "tokenOfOwnerByIndex",
      "outputs": [
        {
          "internalType": "uint256",
          "name": "",
          "type": "uint256"
        }
      ],
      "stateMutability": "view",
      "type": "function"
    },
    {
      "inputs": [
        {
          "internalType": "uint256",
          "name": "tokenId",
          "type": "uint256"
        }
      ],
      "name": "tokenURI",
      "outputs": [
        {
          "internalType": "string",
          "name": "",
          "type": "string"
        }
      ],
      "stateMutability": "view",
      "type": "function"
    },
    {
      "inputs": [],
      "name": "totalSupply",
      "outputs": [
        {
          "internalType": "uint256",
          "name": "",
          "type": "uint256"
        }
      ],
      "stateMutability": "view",
      "type": "function"
    },
    {
      "inputs": [
        {
          "internalType": "address",
          "name": "from",
          "type": "address"
        },
        {
          "internalType": "address",
          "name": "to",
          "type": "address"
        },
        {
          "internalType": "uint256",
          "name": "tokenId",
          "type": "uint256"
        }
      ],
      "name": "transferFrom",
      "outputs": [],
      "stateMutability": "nonpayable",
      "type": "function"
    },
    {
      "inputs": [
        {
          "internalType": "address",
          "name": "newOwner",
          "type": "address"
        }
      ],
      "name": "transferOwnership",
      "outputs": [],
      "stateMutability": "nonpayable",
      "type": "function"
    },
    {
      "inputs": [
        {
          "internalType": "address",
          "name": "_owner",
          "type": "address"
        }
      ],
      "name": "walletOfOwner",
      "outputs": [
        {
          "internalType": "uint256[]",
          "name": "",
          "type": "uint256[]"
        }
      ],
      "stateMutability": "view",
      "type": "function"
    },
    {
      "inputs": [],
      "name": "withdraw",
      "outputs": [],
      "stateMutability": "nonpayable",
      "type": "function"
    }
  ],
  "transactionHash": "0x5c7c60fedaacf4cc1120585e5b81f676366381cb767a0d3e5a90bfc01994f5f5",
  "args": [],
  "numDeployments": 1,
  "solcInputHash": "51aec0006659fc9e064d7d656635eee1",
  "bytecode": "0x6080604052652d79883d2000600e553480156200001a575f80fd5b506040518060400160405280600581526020017f526f4465630000000000000000000000000000000000000000000000000000008152506040518060400160405280600381526020017f5244430000000000000000000000000000000000000000000000000000000000815250815f908162000097919062000400565b508060019081620000a9919062000400565b505050620000cc620000c0620000d260201b60201c565b620000d960201b60201c565b620004e4565b5f33905090565b5f600a5f9054906101000a900473ffffffffffffffffffffffffffffffffffffffff16905081600a5f6101000a81548173ffffffffffffffffffffffffffffffffffffffff021916908373ffffffffffffffffffffffffffffffffffffffff1602179055508173ffffffffffffffffffffffffffffffffffffffff168173ffffffffffffffffffffffffffffffffffffffff167f8be0079c531659141344cd1fd0a4f28419497f9722a3daafe3b4186f6b6457e060405160405180910390a35050565b5f81519050919050565b7f4e487b71000000000000000000000000000000000000000000000000000000005f52604160045260245ffd5b7f4e487b71000000000000000000000000000000000000000000000000000000005f52602260045260245ffd5b5f60028204905060018216806200021857607f821691505b6020821081036200022e576200022d620001d3565b5b50919050565b5f819050815f5260205f209050919050565b5f6020601f8301049050919050565b5f82821b905092915050565b5f60088302620002927fffffffffffffffffffffffffffffffffffffffffffffffffffffffffffffffff8262000255565b6200029e868362000255565b95508019841693508086168417925050509392505050565b5f819050919050565b5f819050919050565b5f620002e8620002e2620002dc84620002b6565b620002bf565b620002b6565b9050919050565b5f819050919050565b6200030383620002c8565b6200031b6200031282620002ef565b84845462000261565b825550505050565b5f90565b6200033162000323565b6200033e818484620002f8565b505050565b5b818110156200036557620003595f8262000327565b60018101905062000344565b5050565b601f821115620003b4576200037e8162000234565b620003898462000246565b8101602085101562000399578190505b620003b1620003a88562000246565b83018262000343565b50505b505050565b5f82821c905092915050565b5f620003d65f1984600802620003b9565b1980831691505092915050565b5f620003f08383620003c5565b9150826002028217905092915050565b6200040b826200019c565b67ffffffffffffffff811115620004275762000426620001a6565b5b62000433825462000200565b6200044082828562000369565b5f60209050601f83116001811462000476575f841562000461578287015190505b6200046d8582620003e3565b865550620004dc565b601f198416620004868662000234565b5f5b82811015620004af5784890151825560018201915060208501945060208101905062000488565b86831015620004cf5784890151620004cb601f891682620003c5565b8355505b6001600288020188555050505b505050505050565b613a9680620004f25f395ff3fe6080604052600436106101c1575f3560e01c806370a08231116100f6578063b88d4fde11610094578063eb564d3511610063578063eb564d351461065f578063ed88c68e1461069c578063f2fde38b146106a6578063f8626af8146106ce576101c1565b8063b88d4fde14610595578063c87b56dd146105bd578063e731bfdd146105f9578063e985e9c514610623576101c1565b806391b7f5ed116100d057806391b7f5ed146104f157806395d89b411461051957806398d5fdca14610543578063a22cb4651461056d576101c1565b806370a0823114610475578063715018a6146104b15780638da5cb5b146104c7576101c1565b80632f745c5911610163578063438b63001161013d578063438b6300146103975780634f6ccce7146103d35780636352211e1461040f5780636f9fb98a1461044b576101c1565b80632f745c591461031d5780633ccfd60b1461035957806342842e0e1461036f576101c1565b8063095ea7b31161019f578063095ea7b31461026757806318160ddd1461028f57806323b872dd146102b957806324f1306f146102e1576101c1565b806301ffc9a7146101c557806306fdde0314610201578063081812fc1461022b575b5f80fd5b3480156101d0575f80fd5b506101eb60048036038101906101e69190612781565b61070b565b6040516101f891906127c6565b60405180910390f35b34801561020c575f80fd5b5061021561071c565b6040516102229190612869565b60405180910390f35b348015610236575f80fd5b50610251600480360381019061024c91906128bc565b6107ab565b60405161025e9190612926565b60405180910390f35b348015610272575f80fd5b5061028d60048036038101906102889190612969565b6107ed565b005b34801561029a575f80fd5b506102a3610903565b6040516102b091906129b6565b60405180910390f35b3480156102c4575f80fd5b506102df60048036038101906102da91906129cf565b61090f565b005b3480156102ec575f80fd5b50610307600480360381019061030291906128bc565b61096f565b60405161031491906127c6565b60405180910390f35b348015610328575f80fd5b50610343600480360381019061033e9190612969565b61098c565b60405161035091906129b6565b60405180910390f35b348015610364575f80fd5b5061036d610a2c565b005b34801561037a575f80fd5b50610395600480360381019061039091906129cf565b610adf565b005b3480156103a2575f80fd5b506103bd60048036038101906103b89190612a1f565b610afe565b6040516103ca9190612b01565b60405180910390f35b3480156103de575f80fd5b506103f960048036038101906103f491906128bc565b610ba9565b60405161040691906129b6565b60405180910390f35b34801561041a575f80fd5b50610435600480360381019061043091906128bc565b610c17565b6040516104429190612926565b60405180910390f35b348015610456575f80fd5b5061045f610c9b565b60405161046c91906129b6565b60405180910390f35b348015610480575f80fd5b5061049b60048036038101906104969190612a1f565b610ca2565b6040516104a891906129b6565b60405180910390f35b3480156104bc575f80fd5b506104c5610d56565b005b3480156104d2575f80fd5b506104db610d69565b6040516104e89190612926565b60405180910390f35b3480156104fc575f80fd5b50610517600480360381019061051291906128bc565b610d91565b005b348015610524575f80fd5b5061052d610da3565b60405161053a9190612869565b60405180910390f35b34801561054e575f80fd5b50610557610e33565b60405161056491906129b6565b60405180910390f35b348015610578575f80fd5b50610593600480360381019061058e9190612b4b565b610e3c565b005b3480156105a0575f80fd5b506105bb60048036038101906105b69190612cb5565b610e52565b005b3480156105c8575f80fd5b506105e360048036038101906105de91906128bc565b610eb4565b6040516105f09190612869565b60405180910390f35b348015610604575f80fd5b5061060d610f19565b60405161061a91906129b6565b60405180910390f35b34801561062e575f80fd5b5061064960048036038101906106449190612d35565b610f29565b60405161065691906127c6565b60405180910390f35b34801561066a575f80fd5b50610685600480360381019061068091906128bc565b610fb7565b604051610693929190612d73565b60405180910390f35b6106a461105b565b005b3480156106b1575f80fd5b506106cc60048036038101906106c79190612a1f565b611179565b005b3480156106d9575f80fd5b506106f460048036038101906106ef91906128bc565b6111fb565b604051610702929190612d73565b60405180910390f35b5f6107158261121b565b9050919050565b60605f805461072a90612dc7565b80601f016020809104026020016040519081016040528092919081815260200182805461075690612dc7565b80156107a15780601f10610778576101008083540402835291602001916107a1565b820191905f5260205f20905b81548152906001019060200180831161078457829003601f168201915b5050505050905090565b5f6107b582611294565b60045f8381526020019081526020015f205f9054906101000a900473ffffffffffffffffffffffffffffffffffffffff169050919050565b5f6107f782610c17565b90508073ffffffffffffffffffffffffffffffffffffffff168373ffffffffffffffffffffffffffffffffffffffff1603610867576040517f08c379a000000000000000000000000000000000000000000000000000000000815260040161085e90612e67565b60405180910390fd5b8073ffffffffffffffffffffffffffffffffffffffff166108866112df565b73ffffffffffffffffffffffffffffffffffffffff1614806108b557506108b4816108af6112df565b610f29565b5b6108f4576040517f08c379a00000000000000000000000000000000000000000000000000000000081526004016108eb90612ef5565b60405180910390fd5b6108fe83836112e6565b505050565b5f600880549050905090565b61092061091a6112df565b8261139c565b61095f576040517f08c379a000000000000000000000000000000000000000000000000000000000815260040161095690612f83565b60405180910390fd5b61096a838383611430565b505050565b600d602052805f5260405f205f915054906101000a900460ff1681565b5f61099683610ca2565b82106109d7576040517f08c379a00000000000000000000000000000000000000000000000000000000081526004016109ce90613011565b60405180910390fd5b60065f8473ffffffffffffffffffffffffffffffffffffffff1673ffffffffffffffffffffffffffffffffffffffff1681526020019081526020015f205f8381526020019081526020015f2054905092915050565b610a3461171c565b5f3373ffffffffffffffffffffffffffffffffffffffff1647604051610a599061305c565b5f6040518083038185875af1925050503d805f8114610a93576040519150601f19603f3d011682016040523d82523d5f602084013e610a98565b606091505b5050905080610adc576040517f08c379a0000000000000000000000000000000000000000000000000000000008152600401610ad3906130ba565b60405180910390fd5b50565b610af983838360405180602001604052805f815250610e52565b505050565b60605f610b0a83610ca2565b90505f8167ffffffffffffffff811115610b2757610b26612b91565b5b604051908082528060200260200182016040528015610b555781602001602082028036833780820191505090505b5090505f5b82811015610b9e57610b6c858261098c565b828281518110610b7f57610b7e6130d8565b5b6020026020010181815250508080610b9690613132565b915050610b5a565b508092505050919050565b5f610bb2610903565b8210610bf3576040517f08c379a0000000000000000000000000000000000000000000000000000000008152600401610bea906131e9565b60405180910390fd5b60088281548110610c0757610c066130d8565b5b905f5260205f2001549050919050565b5f80610c228361179a565b90505f73ffffffffffffffffffffffffffffffffffffffff168173ffffffffffffffffffffffffffffffffffffffff1603610c92576040517f08c379a0000000000000000000000000000000000000000000000000000000008152600401610c8990613251565b60405180910390fd5b80915050919050565b5f47905090565b5f8073ffffffffffffffffffffffffffffffffffffffff168273ffffffffffffffffffffffffffffffffffffffff1603610d11576040517f08c379a0000000000000000000000000000000000000000000000000000000008152600401610d08906132df565b60405180910390fd5b60035f8373ffffffffffffffffffffffffffffffffffffffff1673ffffffffffffffffffffffffffffffffffffffff1681526020019081526020015f20549050919050565b610d5e61171c565b610d675f6117d3565b565b5f600a5f9054906101000a900473ffffffffffffffffffffffffffffffffffffffff16905090565b610d9961171c565b80600e8190555050565b606060018054610db290612dc7565b80601f0160208091040260200160405190810160405280929190818152602001828054610dde90612dc7565b8015610e295780601f10610e0057610100808354040283529160200191610e29565b820191905f5260205f20905b815481529060010190602001808311610e0c57829003601f168201915b5050505050905090565b5f600e54905090565b610e4e610e476112df565b8383611896565b5050565b610e63610e5d6112df565b8361139c565b610ea2576040517f08c379a0000000000000000000000000000000000000000000000000000000008152600401610e9990612f83565b60405180910390fd5b610eae848484846119fd565b50505050565b6060610ebf82611294565b5f610ec8611a59565b90505f815111610ee65760405180602001604052805f815250610f11565b80610ef084611a6f565b604051602001610f01929190613337565b6040516020818303038152906040525b915050919050565b5f610f24600b611b39565b905090565b5f60055f8473ffffffffffffffffffffffffffffffffffffffff1673ffffffffffffffffffffffffffffffffffffffff1681526020019081526020015f205f8373ffffffffffffffffffffffffffffffffffffffff1673ffffffffffffffffffffffffffffffffffffffff1681526020019081526020015f205f9054906101000a900460ff16905092915050565b5f80600d5f8481526020019081526020015f205f9054906101000a900460ff16611016576040517f08c379a000000000000000000000000000000000000000000000000000000000815260040161100d906133a4565b60405180910390fd5b5f600c5f8581526020019081526020015f206040518060400160405290815f82015481526020016001820154815250509050805f015181602001519250925050915091565b600e543410156110a0576040517f08c379a00000000000000000000000000000000000000000000000000000000081526004016110979061340c565b60405180910390fd5b5f6110ab600b611b39565b90506110b73382611b45565b604051806040016040528034815260200142815250600c5f8381526020019081526020015f205f820151815f0155602082015181600101559050506001600d5f8381526020019081526020015f205f6101000a81548160ff021916908315150217905550611125600b611b62565b803373ffffffffffffffffffffffffffffffffffffffff167fab17a5fe3354c66071b173a5b27e11f7a6a419514823eba22f2f408978cba710344260405161116e929190612d73565b60405180910390a350565b61118161171c565b5f73ffffffffffffffffffffffffffffffffffffffff168173ffffffffffffffffffffffffffffffffffffffff16036111ef576040517f08c379a00000000000000000000000000000000000000000000000000000000081526004016111e69061349a565b60405180910390fd5b6111f8816117d3565b50565b600c602052805f5260405f205f91509050805f0154908060010154905082565b5f7f780e9d63000000000000000000000000000000000000000000000000000000007bffffffffffffffffffffffffffffffffffffffffffffffffffffffff1916827bffffffffffffffffffffffffffffffffffffffffffffffffffffffff1916148061128d575061128c82611b76565b5b9050919050565b61129d81611c57565b6112dc576040517f08c379a00000000000000000000000000000000000000000000000000000000081526004016112d390613251565b60405180910390fd5b50565b5f33905090565b8160045f8381526020019081526020015f205f6101000a81548173ffffffffffffffffffffffffffffffffffffffff021916908373ffffffffffffffffffffffffffffffffffffffff160217905550808273ffffffffffffffffffffffffffffffffffffffff1661135683610c17565b73ffffffffffffffffffffffffffffffffffffffff167f8c5be1e5ebec7d5bd14f71427d1e84f3dd0314c0f7b2291e5b200ac8c7c3b92560405160405180910390a45050565b5f806113a783610c17565b90508073ffffffffffffffffffffffffffffffffffffffff168473ffffffffffffffffffffffffffffffffffffffff1614806113e957506113e88185610f29565b5b8061142757508373ffffffffffffffffffffffffffffffffffffffff1661140f846107ab565b73ffffffffffffffffffffffffffffffffffffffff16145b91505092915050565b8273ffffffffffffffffffffffffffffffffffffffff1661145082610c17565b73ffffffffffffffffffffffffffffffffffffffff16146114a6576040517f08c379a000000000000000000000000000000000000000000000000000000000815260040161149d90613528565b60405180910390fd5b5f73ffffffffffffffffffffffffffffffffffffffff168273ffffffffffffffffffffffffffffffffffffffff1603611514576040517f08c379a000000000000000000000000000000000000000000000000000000000815260040161150b906135b6565b60405180910390fd5b6115218383836001611c97565b8273ffffffffffffffffffffffffffffffffffffffff1661154182610c17565b73ffffffffffffffffffffffffffffffffffffffff1614611597576040517f08c379a000000000000000000000000000000000000000000000000000000000815260040161158e90613528565b60405180910390fd5b60045f8281526020019081526020015f205f6101000a81549073ffffffffffffffffffffffffffffffffffffffff0219169055600160035f8573ffffffffffffffffffffffffffffffffffffffff1673ffffffffffffffffffffffffffffffffffffffff1681526020019081526020015f205f8282540392505081905550600160035f8473ffffffffffffffffffffffffffffffffffffffff1673ffffffffffffffffffffffffffffffffffffffff1681526020019081526020015f205f82825401925050819055508160025f8381526020019081526020015f205f6101000a81548173ffffffffffffffffffffffffffffffffffffffff021916908373ffffffffffffffffffffffffffffffffffffffff160217905550808273ffffffffffffffffffffffffffffffffffffffff168473ffffffffffffffffffffffffffffffffffffffff167fddf252ad1be2c89b69c2b068fc378daa952ba7f163c4a11628f55a4df523b3ef60405160405180910390a46117178383836001611d17565b505050565b6117246112df565b73ffffffffffffffffffffffffffffffffffffffff16611742610d69565b73ffffffffffffffffffffffffffffffffffffffff1614611798576040517f08c379a000000000000000000000000000000000000000000000000000000000815260040161178f9061361e565b60405180910390fd5b565b5f60025f8381526020019081526020015f205f9054906101000a900473ffffffffffffffffffffffffffffffffffffffff169050919050565b5f600a5f9054906101000a900473ffffffffffffffffffffffffffffffffffffffff16905081600a5f6101000a81548173ffffffffffffffffffffffffffffffffffffffff021916908373ffffffffffffffffffffffffffffffffffffffff1602179055508173ffffffffffffffffffffffffffffffffffffffff168173ffffffffffffffffffffffffffffffffffffffff167f8be0079c531659141344cd1fd0a4f28419497f9722a3daafe3b4186f6b6457e060405160405180910390a35050565b8173ffffffffffffffffffffffffffffffffffffffff168373ffffffffffffffffffffffffffffffffffffffff1603611904576040517f08c379a00000000000000000000000000000000000000000000000000000000081526004016118fb90613686565b60405180910390fd5b8060055f8573ffffffffffffffffffffffffffffffffffffffff1673ffffffffffffffffffffffffffffffffffffffff1681526020019081526020015f205f8473ffffffffffffffffffffffffffffffffffffffff1673ffffffffffffffffffffffffffffffffffffffff1681526020019081526020015f205f6101000a81548160ff0219169083151502179055508173ffffffffffffffffffffffffffffffffffffffff168373ffffffffffffffffffffffffffffffffffffffff167f17307eab39ab6107e8899845ad3d59bd9653f200f220920489ca2b5937696c31836040516119f091906127c6565b60405180910390a3505050565b611a08848484611430565b611a1484848484611d1d565b611a53576040517f08c379a0000000000000000000000000000000000000000000000000000000008152600401611a4a90613714565b60405180910390fd5b50505050565b606060405180602001604052805f815250905090565b60605f6001611a7d84611e9f565b0190505f8167ffffffffffffffff811115611a9b57611a9a612b91565b5b6040519080825280601f01601f191660200182016040528015611acd5781602001600182028036833780820191505090505b5090505f82602001820190505b600115611b2e578080600190039150507f3031323334353637383961626364656600000000000000000000000000000000600a86061a8153600a8581611b2357611b22613732565b5b0494505f8503611ada575b819350505050919050565b5f815f01549050919050565b611b5e828260405180602001604052805f815250611ff0565b5050565b6001815f015f828254019250508190555050565b5f7f80ac58cd000000000000000000000000000000000000000000000000000000007bffffffffffffffffffffffffffffffffffffffffffffffffffffffff1916827bffffffffffffffffffffffffffffffffffffffffffffffffffffffff19161480611c4057507f5b5e139f000000000000000000000000000000000000000000000000000000007bffffffffffffffffffffffffffffffffffffffffffffffffffffffff1916827bffffffffffffffffffffffffffffffffffffffffffffffffffffffff1916145b80611c505750611c4f8261204a565b5b9050919050565b5f8073ffffffffffffffffffffffffffffffffffffffff16611c788361179a565b73ffffffffffffffffffffffffffffffffffffffff1614159050919050565b5f73ffffffffffffffffffffffffffffffffffffffff168473ffffffffffffffffffffffffffffffffffffffff1614611d05576040517f08c379a0000000000000000000000000000000000000000000000000000000008152600401611cfc906137a9565b60405180910390fd5b611d11848484846120b3565b50505050565b50505050565b5f611d3d8473ffffffffffffffffffffffffffffffffffffffff1661220e565b15611e92578373ffffffffffffffffffffffffffffffffffffffff1663150b7a02611d666112df565b8786866040518563ffffffff1660e01b8152600401611d889493929190613819565b6020604051808303815f875af1925050508015611dc357506040513d601f19601f82011682018060405250810190611dc09190613877565b60015b611e42573d805f8114611df1576040519150601f19603f3d011682016040523d82523d5f602084013e611df6565b606091505b505f815103611e3a576040517f08c379a0000000000000000000000000000000000000000000000000000000008152600401611e3190613714565b60405180910390fd5b805181602001fd5b63150b7a0260e01b7bffffffffffffffffffffffffffffffffffffffffffffffffffffffff1916817bffffffffffffffffffffffffffffffffffffffffffffffffffffffff191614915050611e97565b600190505b949350505050565b5f805f90507a184f03e93ff9f4daa797ed6e38ed64bf6a1f0100000000000000008310611efb577a184f03e93ff9f4daa797ed6e38ed64bf6a1f0100000000000000008381611ef157611ef0613732565b5b0492506040810190505b6d04ee2d6d415b85acef81000000008310611f38576d04ee2d6d415b85acef81000000008381611f2e57611f2d613732565b5b0492506020810190505b662386f26fc100008310611f6757662386f26fc100008381611f5d57611f5c613732565b5b0492506010810190505b6305f5e1008310611f90576305f5e1008381611f8657611f85613732565b5b0492506008810190505b6127108310611fb5576127108381611fab57611faa613732565b5b0492506004810190505b60648310611fd85760648381611fce57611fcd613732565b5b0492506002810190505b600a8310611fe7576001810190505b80915050919050565b611ffa8383612230565b6120065f848484611d1d565b612045576040517f08c379a000000000000000000000000000000000000000000000000000000000815260040161203c90613714565b60405180910390fd5b505050565b5f7f01ffc9a7000000000000000000000000000000000000000000000000000000007bffffffffffffffffffffffffffffffffffffffffffffffffffffffff1916827bffffffffffffffffffffffffffffffffffffffffffffffffffffffff1916149050919050565b6120bf84848484612443565b6001811115612103576040517f08c379a00000000000000000000000000000000000000000000000000000000081526004016120fa90613912565b60405180910390fd5b5f8290505f73ffffffffffffffffffffffffffffffffffffffff168573ffffffffffffffffffffffffffffffffffffffff16036121485761214381612449565b612187565b8373ffffffffffffffffffffffffffffffffffffffff168573ffffffffffffffffffffffffffffffffffffffff161461218657612185858261248d565b5b5b5f73ffffffffffffffffffffffffffffffffffffffff168473ffffffffffffffffffffffffffffffffffffffff16036121c8576121c3816125e3565b612207565b8473ffffffffffffffffffffffffffffffffffffffff168473ffffffffffffffffffffffffffffffffffffffff16146122065761220584826126a3565b5b5b5050505050565b5f808273ffffffffffffffffffffffffffffffffffffffff163b119050919050565b5f73ffffffffffffffffffffffffffffffffffffffff168273ffffffffffffffffffffffffffffffffffffffff160361229e576040517f08c379a00000000000000000000000000000000000000000000000000000000081526004016122959061397a565b60405180910390fd5b6122a781611c57565b156122e7576040517f08c379a00000000000000000000000000000000000000000000000000000000081526004016122de906139e2565b60405180910390fd5b6122f45f83836001611c97565b6122fd81611c57565b1561233d576040517f08c379a0000000000000000000000000000000000000000000000000000000008152600401612334906139e2565b60405180910390fd5b600160035f8473ffffffffffffffffffffffffffffffffffffffff1673ffffffffffffffffffffffffffffffffffffffff1681526020019081526020015f205f82825401925050819055508160025f8381526020019081526020015f205f6101000a81548173ffffffffffffffffffffffffffffffffffffffff021916908373ffffffffffffffffffffffffffffffffffffffff160217905550808273ffffffffffffffffffffffffffffffffffffffff165f73ffffffffffffffffffffffffffffffffffffffff167fddf252ad1be2c89b69c2b068fc378daa952ba7f163c4a11628f55a4df523b3ef60405160405180910390a461243f5f83836001611d17565b5050565b50505050565b60088054905060095f8381526020019081526020015f2081905550600881908060018154018082558091505060019003905f5260205f20015f909190919091505550565b5f600161249984610ca2565b6124a39190613a00565b90505f60075f8481526020019081526020015f2054905081811461257a575f60065f8673ffffffffffffffffffffffffffffffffffffffff1673ffffffffffffffffffffffffffffffffffffffff1681526020019081526020015f205f8481526020019081526020015f205490508060065f8773ffffffffffffffffffffffffffffffffffffffff1673ffffffffffffffffffffffffffffffffffffffff1681526020019081526020015f205f8481526020019081526020015f20819055508160075f8381526020019081526020015f2081905550505b60075f8481526020019081526020015f205f905560065f8573ffffffffffffffffffffffffffffffffffffffff1673ffffffffffffffffffffffffffffffffffffffff1681526020019081526020015f205f8381526020019081526020015f205f905550505050565b5f60016008805490506125f69190613a00565b90505f60095f8481526020019081526020015f205490505f60088381548110612622576126216130d8565b5b905f5260205f20015490508060088381548110612642576126416130d8565b5b905f5260205f2001819055508160095f8381526020019081526020015f208190555060095f8581526020019081526020015f205f9055600880548061268a57612689613a33565b5b600190038181905f5260205f20015f9055905550505050565b5f6126ad83610ca2565b90508160065f8573ffffffffffffffffffffffffffffffffffffffff1673ffffffffffffffffffffffffffffffffffffffff1681526020019081526020015f205f8381526020019081526020015f20819055508060075f8481526020019081526020015f2081905550505050565b5f604051905090565b5f80fd5b5f80fd5b5f7fffffffff0000000000000000000000000000000000000000000000000000000082169050919050565b6127608161272c565b811461276a575f80fd5b50565b5f8135905061277b81612757565b92915050565b5f6020828403121561279657612795612724565b5b5f6127a38482850161276d565b91505092915050565b5f8115159050919050565b6127c0816127ac565b82525050565b5f6020820190506127d95f8301846127b7565b92915050565b5f81519050919050565b5f82825260208201905092915050565b5f5b838110156128165780820151818401526020810190506127fb565b5f8484015250505050565b5f601f19601f8301169050919050565b5f61283b826127df565b61284581856127e9565b93506128558185602086016127f9565b61285e81612821565b840191505092915050565b5f6020820190508181035f8301526128818184612831565b905092915050565b5f819050919050565b61289b81612889565b81146128a5575f80fd5b50565b5f813590506128b681612892565b92915050565b5f602082840312156128d1576128d0612724565b5b5f6128de848285016128a8565b91505092915050565b5f73ffffffffffffffffffffffffffffffffffffffff82169050919050565b5f612910826128e7565b9050919050565b61292081612906565b82525050565b5f6020820190506129395f830184612917565b92915050565b61294881612906565b8114612952575f80fd5b50565b5f813590506129638161293f565b92915050565b5f806040838503121561297f5761297e612724565b5b5f61298c85828601612955565b925050602061299d858286016128a8565b9150509250929050565b6129b081612889565b82525050565b5f6020820190506129c95f8301846129a7565b92915050565b5f805f606084860312156129e6576129e5612724565b5b5f6129f386828701612955565b9350506020612a0486828701612955565b9250506040612a15868287016128a8565b9150509250925092565b5f60208284031215612a3457612a33612724565b5b5f612a4184828501612955565b91505092915050565b5f81519050919050565b5f82825260208201905092915050565b5f819050602082019050919050565b612a7c81612889565b82525050565b5f612a8d8383612a73565b60208301905092915050565b5f602082019050919050565b5f612aaf82612a4a565b612ab98185612a54565b9350612ac483612a64565b805f5b83811015612af4578151612adb8882612a82565b9750612ae683612a99565b925050600181019050612ac7565b5085935050505092915050565b5f6020820190508181035f830152612b198184612aa5565b905092915050565b612b2a816127ac565b8114612b34575f80fd5b50565b5f81359050612b4581612b21565b92915050565b5f8060408385031215612b6157612b60612724565b5b5f612b6e85828601612955565b9250506020612b7f85828601612b37565b9150509250929050565b5f80fd5b5f80fd5b7f4e487b71000000000000000000000000000000000000000000000000000000005f52604160045260245ffd5b612bc782612821565b810181811067ffffffffffffffff82111715612be657612be5612b91565b5b80604052505050565b5f612bf861271b565b9050612c048282612bbe565b919050565b5f67ffffffffffffffff821115612c2357612c22612b91565b5b612c2c82612821565b9050602081019050919050565b828183375f83830152505050565b5f612c59612c5484612c09565b612bef565b905082815260208101848484011115612c7557612c74612b8d565b5b612c80848285612c39565b509392505050565b5f82601f830112612c9c57612c9b612b89565b5b8135612cac848260208601612c47565b91505092915050565b5f805f8060808587031215612ccd57612ccc612724565b5b5f612cda87828801612955565b9450506020612ceb87828801612955565b9350506040612cfc878288016128a8565b925050606085013567ffffffffffffffff811115612d1d57612d1c612728565b5b612d2987828801612c88565b91505092959194509250565b5f8060408385031215612d4b57612d4a612724565b5b5f612d5885828601612955565b9250506020612d6985828601612955565b9150509250929050565b5f604082019050612d865f8301856129a7565b612d9360208301846129a7565b9392505050565b7f4e487b71000000000000000000000000000000000000000000000000000000005f52602260045260245ffd5b5f6002820490506001821680612dde57607f821691505b602082108103612df157612df0612d9a565b5b50919050565b7f4552433732313a20617070726f76616c20746f2063757272656e74206f776e655f8201527f7200000000000000000000000000000000000000000000000000000000000000602082015250565b5f612e516021836127e9565b9150612e5c82612df7565b604082019050919050565b5f6020820190508181035f830152612e7e81612e45565b9050919050565b7f4552433732313a20617070726f76652063616c6c6572206973206e6f7420746f5f8201527f6b656e206f776e6572206f7220617070726f76656420666f7220616c6c000000602082015250565b5f612edf603d836127e9565b9150612eea82612e85565b604082019050919050565b5f6020820190508181035f830152612f0c81612ed3565b9050919050565b7f4552433732313a2063616c6c6572206973206e6f7420746f6b656e206f776e655f8201527f72206f7220617070726f76656400000000000000000000000000000000000000602082015250565b5f612f6d602d836127e9565b9150612f7882612f13565b604082019050919050565b5f6020820190508181035f830152612f9a81612f61565b9050919050565b7f455243373231456e756d657261626c653a206f776e657220696e646578206f755f8201527f74206f6620626f756e6473000000000000000000000000000000000000000000602082015250565b5f612ffb602b836127e9565b915061300682612fa1565b604082019050919050565b5f6020820190508181035f83015261302881612fef565b9050919050565b5f81905092915050565b50565b5f6130475f8361302f565b915061305282613039565b5f82019050919050565b5f6130668261303c565b9150819050919050565b7f5769746864726177616c206661696c65640000000000000000000000000000005f82015250565b5f6130a46011836127e9565b91506130af82613070565b602082019050919050565b5f6020820190508181035f8301526130d181613098565b9050919050565b7f4e487b71000000000000000000000000000000000000000000000000000000005f52603260045260245ffd5b7f4e487b71000000000000000000000000000000000000000000000000000000005f52601160045260245ffd5b5f61313c82612889565b91507fffffffffffffffffffffffffffffffffffffffffffffffffffffffffffffffff820361316e5761316d613105565b5b600182019050919050565b7f455243373231456e756d657261626c653a20676c6f62616c20696e646578206f5f8201527f7574206f6620626f756e64730000000000000000000000000000000000000000602082015250565b5f6131d3602c836127e9565b91506131de82613179565b604082019050919050565b5f6020820190508181035f830152613200816131c7565b9050919050565b7f4552433732313a20696e76616c696420746f6b656e20494400000000000000005f82015250565b5f61323b6018836127e9565b915061324682613207565b602082019050919050565b5f6020820190508181035f8301526132688161322f565b9050919050565b7f4552433732313a2061646472657373207a65726f206973206e6f7420612076615f8201527f6c6964206f776e65720000000000000000000000000000000000000000000000602082015250565b5f6132c96029836127e9565b91506132d48261326f565b604082019050919050565b5f6020820190508181035f8301526132f6816132bd565b9050919050565b5f81905092915050565b5f613311826127df565b61331b81856132fd565b935061332b8185602086016127f9565b80840191505092915050565b5f6133428285613307565b915061334e8284613307565b91508190509392505050565b7f446f6e6174696f6e20646f6573206e6f742065786973740000000000000000005f82015250565b5f61338e6017836127e9565b91506133998261335a565b602082019050919050565b5f6020820190508181035f8301526133bb81613382565b9050919050565b7f416d6f756e7420746f6f206c6f770000000000000000000000000000000000005f82015250565b5f6133f6600e836127e9565b9150613401826133c2565b602082019050919050565b5f6020820190508181035f830152613423816133ea565b9050919050565b7f4f776e61626c653a206e6577206f776e657220697320746865207a65726f20615f8201527f6464726573730000000000000000000000000000000000000000000000000000602082015250565b5f6134846026836127e9565b915061348f8261342a565b604082019050919050565b5f6020820190508181035f8301526134b181613478565b9050919050565b7f4552433732313a207472616e736665722066726f6d20696e636f7272656374205f8201527f6f776e6572000000000000000000000000000000000000000000000000000000602082015250565b5f6135126025836127e9565b915061351d826134b8565b604082019050919050565b5f6020820190508181035f83015261353f81613506565b9050919050565b7f4552433732313a207472616e7366657220746f20746865207a65726f206164645f8201527f7265737300000000000000000000000000000000000000000000000000000000602082015250565b5f6135a06024836127e9565b91506135ab82613546565b604082019050919050565b5f6020820190508181035f8301526135cd81613594565b9050919050565b7f4f776e61626c653a2063616c6c6572206973206e6f7420746865206f776e65725f82015250565b5f6136086020836127e9565b9150613613826135d4565b602082019050919050565b5f6020820190508181035f830152613635816135fc565b9050919050565b7f4552433732313a20617070726f766520746f2063616c6c6572000000000000005f82015250565b5f6136706019836127e9565b915061367b8261363c565b602082019050919050565b5f6020820190508181035f83015261369d81613664565b9050919050565b7f4552433732313a207472616e7366657220746f206e6f6e2045524337323152655f8201527f63656976657220696d706c656d656e7465720000000000000000000000000000602082015250565b5f6136fe6032836127e9565b9150613709826136a4565b604082019050919050565b5f6020820190508181035f83015261372b816136f2565b9050919050565b7f4e487b71000000000000000000000000000000000000000000000000000000005f52601260045260245ffd5b7f5472616e73666572206e6f7420616c6c6f7765640000000000000000000000005f82015250565b5f6137936014836127e9565b915061379e8261375f565b602082019050919050565b5f6020820190508181035f8301526137c081613787565b9050919050565b5f81519050919050565b5f82825260208201905092915050565b5f6137eb826137c7565b6137f581856137d1565b93506138058185602086016127f9565b61380e81612821565b840191505092915050565b5f60808201905061382c5f830187612917565b6138396020830186612917565b61384660408301856129a7565b818103606083015261385881846137e1565b905095945050505050565b5f8151905061387181612757565b92915050565b5f6020828403121561388c5761388b612724565b5b5f61389984828501613863565b91505092915050565b7f455243373231456e756d657261626c653a20636f6e73656375746976652074725f8201527f616e7366657273206e6f7420737570706f727465640000000000000000000000602082015250565b5f6138fc6035836127e9565b9150613907826138a2565b604082019050919050565b5f6020820190508181035f830152613929816138f0565b9050919050565b7f4552433732313a206d696e7420746f20746865207a65726f20616464726573735f82015250565b5f6139646020836127e9565b915061396f82613930565b602082019050919050565b5f6020820190508181035f83015261399181613958565b9050919050565b7f4552433732313a20746f6b656e20616c7265616479206d696e746564000000005f82015250565b5f6139cc601c836127e9565b91506139d782613998565b602082019050919050565b5f6020820190508181035f8301526139f9816139c0565b9050919050565b5f613a0a82612889565b9150613a1583612889565b9250828203905081811115613a2d57613a2c613105565b5b92915050565b7f4e487b71000000000000000000000000000000000000000000000000000000005f52603160045260245ffdfea2646970667358221220188a884914ff120e3c9f8a0a07f0ba95afeb370135fb72544072ec188443be7b64736f6c63430008140033",
  "devdoc": {
    "author": "Thomas for Alyra Certifaction",
    "details": "Implements donations in exchange for ERC721 tokens.",
    "events": {
      "Approval(address,address,uint256)": {
        "details": "Emitted when `owner` enables `approved` to manage the `tokenId` token."
      },
      "ApprovalForAll(address,address,bool)": {
        "details": "Emitted when `owner` enables or disables (`approved`) `operator` to manage all of its assets."
      },
      "NewDonation(address,uint256,uint256,uint256)": {
        "details": "Event emitted when a new donation is made"
      },
      "Transfer(address,address,uint256)": {
        "details": "Emitted when `tokenId` token is transferred from `from` to `to`."
      }
    },
    "kind": "dev",
    "methods": {
      "approve(address,uint256)": {
        "details": "See {IERC721-approve}."
      },
      "balanceOf(address)": {
        "details": "See {IERC721-balanceOf}."
      },
      "constructor": {
        "details": "Sets the name and symbol of the token"
      },
      "donate()": {
        "details": "Enables external accounts to make a donation and receive an ERC721 token"
      },
      "getApproved(uint256)": {
        "details": "See {IERC721-getApproved}."
      },
      "getContractBalance()": {
        "details": "Returns the balance of the contract"
      },
      "getDonationDetails(uint256)": {
        "details": "Returns the details of a specific donation"
      },
      "getPrice()": {
        "details": "Returns the current donation price"
      },
      "isApprovedForAll(address,address)": {
        "details": "See {IERC721-isApprovedForAll}."
      },
      "name()": {
        "details": "See {IERC721Metadata-name}."
      },
      "nbDonationsTotal()": {
        "details": "Returns the total number of donations made"
      },
      "owner()": {
        "details": "Returns the address of the current owner."
      },
      "ownerOf(uint256)": {
        "details": "See {IERC721-ownerOf}."
      },
      "renounceOwnership()": {
        "details": "Leaves the contract without owner. It will not be possible to call `onlyOwner` functions. Can only be called by the current owner. NOTE: Renouncing ownership will leave the contract without an owner, thereby disabling any functionality that is only available to the owner."
      },
      "safeTransferFrom(address,address,uint256)": {
        "details": "See {IERC721-safeTransferFrom}."
      },
      "safeTransferFrom(address,address,uint256,bytes)": {
        "details": "See {IERC721-safeTransferFrom}."
      },
      "setApprovalForAll(address,bool)": {
        "details": "See {IERC721-setApprovalForAll}."
      },
      "setPrice(uint256)": {
        "details": "Allows the owner to set a new min donation price"
      },
      "supportsInterface(bytes4)": {
        "details": "Overrides supportsInterface to use multiple inheritance in contract"
      },
      "symbol()": {
        "details": "See {IERC721Metadata-symbol}."
      },
      "tokenByIndex(uint256)": {
        "details": "See {IERC721Enumerable-tokenByIndex}."
      },
      "tokenOfOwnerByIndex(address,uint256)": {
        "details": "See {IERC721Enumerable-tokenOfOwnerByIndex}."
      },
      "tokenURI(uint256)": {
        "details": "See {IERC721Metadata-tokenURI}."
      },
      "totalSupply()": {
        "details": "See {IERC721Enumerable-totalSupply}."
      },
      "transferFrom(address,address,uint256)": {
        "details": "See {IERC721-transferFrom}."
      },
      "transferOwnership(address)": {
        "details": "Transfers ownership of the contract to a new account (`newOwner`). Can only be called by the current owner."
      },
      "walletOfOwner(address)": {
        "details": "Returns a list of donation IDs for a given address"
      },
      "withdraw()": {
        "details": "Allows the owner to withdraw all funds from the contract"
      }
    },
    "title": "Donate contract",
    "version": 1
  },
  "userdoc": {
    "kind": "user",
    "methods": {},
    "version": 1
  },
  "storageLayout": {
    "storage": [
      {
        "astId": 138,
        "contract": "contracts/Donate.sol:Donate",
        "label": "_name",
        "offset": 0,
        "slot": "0",
        "type": "t_string_storage"
      },
      {
        "astId": 140,
        "contract": "contracts/Donate.sol:Donate",
        "label": "_symbol",
        "offset": 0,
        "slot": "1",
        "type": "t_string_storage"
      },
      {
        "astId": 144,
        "contract": "contracts/Donate.sol:Donate",
        "label": "_owners",
        "offset": 0,
        "slot": "2",
        "type": "t_mapping(t_uint256,t_address)"
      },
      {
        "astId": 148,
        "contract": "contracts/Donate.sol:Donate",
        "label": "_balances",
        "offset": 0,
        "slot": "3",
        "type": "t_mapping(t_address,t_uint256)"
      },
      {
        "astId": 152,
        "contract": "contracts/Donate.sol:Donate",
        "label": "_tokenApprovals",
        "offset": 0,
        "slot": "4",
        "type": "t_mapping(t_uint256,t_address)"
      },
      {
        "astId": 158,
        "contract": "contracts/Donate.sol:Donate",
        "label": "_operatorApprovals",
        "offset": 0,
        "slot": "5",
        "type": "t_mapping(t_address,t_mapping(t_address,t_bool))"
      },
      {
        "astId": 1188,
        "contract": "contracts/Donate.sol:Donate",
        "label": "_ownedTokens",
        "offset": 0,
        "slot": "6",
        "type": "t_mapping(t_address,t_mapping(t_uint256,t_uint256))"
      },
      {
        "astId": 1192,
        "contract": "contracts/Donate.sol:Donate",
        "label": "_ownedTokensIndex",
        "offset": 0,
        "slot": "7",
        "type": "t_mapping(t_uint256,t_uint256)"
      },
      {
        "astId": 1195,
        "contract": "contracts/Donate.sol:Donate",
        "label": "_allTokens",
        "offset": 0,
        "slot": "8",
        "type": "t_array(t_uint256)dyn_storage"
      },
      {
        "astId": 1199,
        "contract": "contracts/Donate.sol:Donate",
        "label": "_allTokensIndex",
        "offset": 0,
        "slot": "9",
        "type": "t_mapping(t_uint256,t_uint256)"
      },
      {
        "astId": 7,
        "contract": "contracts/Donate.sol:Donate",
        "label": "_owner",
        "offset": 0,
        "slot": "10",
        "type": "t_address"
      },
      {
        "astId": 3267,
        "contract": "contracts/Donate.sol:Donate",
        "label": "_donationIds",
        "offset": 0,
        "slot": "11",
        "type": "t_struct(Counter)1943_storage"
      },
      {
        "astId": 3277,
        "contract": "contracts/Donate.sol:Donate",
        "label": "donations",
        "offset": 0,
        "slot": "12",
        "type": "t_mapping(t_uint256,t_struct(Donation)3272_storage)"
      },
      {
        "astId": 3281,
        "contract": "contracts/Donate.sol:Donate",
        "label": "donationExists",
        "offset": 0,
        "slot": "13",
        "type": "t_mapping(t_uint256,t_bool)"
      },
      {
        "astId": 3295,
        "contract": "contracts/Donate.sol:Donate",
        "label": "_price",
        "offset": 0,
        "slot": "14",
        "type": "t_uint256"
      }
    ],
    "types": {
      "t_address": {
        "encoding": "inplace",
        "label": "address",
        "numberOfBytes": "20"
      },
      "t_array(t_uint256)dyn_storage": {
        "base": "t_uint256",
        "encoding": "dynamic_array",
        "label": "uint256[]",
        "numberOfBytes": "32"
      },
      "t_bool": {
        "encoding": "inplace",
        "label": "bool",
        "numberOfBytes": "1"
      },
      "t_mapping(t_address,t_bool)": {
        "encoding": "mapping",
        "key": "t_address",
        "label": "mapping(address => bool)",
        "numberOfBytes": "32",
        "value": "t_bool"
      },
      "t_mapping(t_address,t_mapping(t_address,t_bool))": {
        "encoding": "mapping",
        "key": "t_address",
        "label": "mapping(address => mapping(address => bool))",
        "numberOfBytes": "32",
        "value": "t_mapping(t_address,t_bool)"
      },
      "t_mapping(t_address,t_mapping(t_uint256,t_uint256))": {
        "encoding": "mapping",
        "key": "t_address",
        "label": "mapping(address => mapping(uint256 => uint256))",
        "numberOfBytes": "32",
        "value": "t_mapping(t_uint256,t_uint256)"
      },
      "t_mapping(t_address,t_uint256)": {
        "encoding": "mapping",
        "key": "t_address",
        "label": "mapping(address => uint256)",
        "numberOfBytes": "32",
        "value": "t_uint256"
      },
      "t_mapping(t_uint256,t_address)": {
        "encoding": "mapping",
        "key": "t_uint256",
        "label": "mapping(uint256 => address)",
        "numberOfBytes": "32",
        "value": "t_address"
      },
      "t_mapping(t_uint256,t_bool)": {
        "encoding": "mapping",
        "key": "t_uint256",
        "label": "mapping(uint256 => bool)",
        "numberOfBytes": "32",
        "value": "t_bool"
      },
      "t_mapping(t_uint256,t_struct(Donation)3272_storage)": {
        "encoding": "mapping",
        "key": "t_uint256",
        "label": "mapping(uint256 => struct Donate.Donation)",
        "numberOfBytes": "32",
        "value": "t_struct(Donation)3272_storage"
      },
      "t_mapping(t_uint256,t_uint256)": {
        "encoding": "mapping",
        "key": "t_uint256",
        "label": "mapping(uint256 => uint256)",
        "numberOfBytes": "32",
        "value": "t_uint256"
      },
      "t_string_storage": {
        "encoding": "bytes",
        "label": "string",
        "numberOfBytes": "32"
      },
      "t_struct(Counter)1943_storage": {
        "encoding": "inplace",
        "label": "struct Counters.Counter",
        "members": [
          {
            "astId": 1942,
            "contract": "contracts/Donate.sol:Donate",
            "label": "_value",
            "offset": 0,
            "slot": "0",
            "type": "t_uint256"
          }
        ],
        "numberOfBytes": "32"
      },
      "t_struct(Donation)3272_storage": {
        "encoding": "inplace",
        "label": "struct Donate.Donation",
        "members": [
          {
            "astId": 3269,
            "contract": "contracts/Donate.sol:Donate",
            "label": "amount",
            "offset": 0,
            "slot": "0",
            "type": "t_uint256"
          },
          {
            "astId": 3271,
            "contract": "contracts/Donate.sol:Donate",
            "label": "timestamp",
            "offset": 0,
            "slot": "1",
            "type": "t_uint256"
          }
        ],
        "numberOfBytes": "64"
      },
      "t_uint256": {
        "encoding": "inplace",
        "label": "uint256",
        "numberOfBytes": "32"
      }
    }
  }
}