{
  "address": "0x5FbDB2315678afecb367f032d93F642f64180aa3",
  "abi": [
    {
      "inputs": [],
      "stateMutability": "nonpayable",
      "type": "constructor"
    },
    {
      "anonymous": false,
      "inputs": [
        {
          "indexed": true,
          "internalType": "address",
          "name": "owner",
          "type": "address"
        },
        {
          "indexed": true,
          "internalType": "address",
          "name": "approved",
          "type": "address"
        },
        {
          "indexed": true,
          "internalType": "uint256",
          "name": "tokenId",
          "type": "uint256"
        }
      ],
      "name": "Approval",
      "type": "event"
    },
    {
      "anonymous": false,
      "inputs": [
        {
          "indexed": true,
          "internalType": "address",
          "name": "owner",
          "type": "address"
        },
        {
          "indexed": true,
          "internalType": "address",
          "name": "operator",
          "type": "address"
        },
        {
          "indexed": false,
          "internalType": "bool",
          "name": "approved",
          "type": "bool"
        }
      ],
      "name": "ApprovalForAll",
      "type": "event"
    },
    {
      "anonymous": false,
      "inputs": [
        {
          "indexed": true,
          "internalType": "address",
          "name": "sender",
          "type": "address"
        },
        {
          "indexed": true,
          "internalType": "uint256",
          "name": "donationId",
          "type": "uint256"
        },
        {
          "indexed": false,
          "internalType": "uint256",
          "name": "amount",
          "type": "uint256"
        },
        {
          "indexed": false,
          "internalType": "uint256",
          "name": "timestamp",
          "type": "uint256"
        }
      ],
      "name": "NewDonation",
      "type": "event"
    },
    {
      "anonymous": false,
      "inputs": [
        {
          "indexed": true,
          "internalType": "address",
          "name": "previousOwner",
          "type": "address"
        },
        {
          "indexed": true,
          "internalType": "address",
          "name": "newOwner",
          "type": "address"
        }
      ],
      "name": "OwnershipTransferred",
      "type": "event"
    },
    {
      "anonymous": false,
      "inputs": [
        {
          "indexed": true,
          "internalType": "address",
          "name": "from",
          "type": "address"
        },
        {
          "indexed": true,
          "internalType": "address",
          "name": "to",
          "type": "address"
        },
        {
          "indexed": true,
          "internalType": "uint256",
          "name": "tokenId",
          "type": "uint256"
        }
      ],
      "name": "Transfer",
      "type": "event"
    },
    {
      "inputs": [
        {
          "internalType": "address",
          "name": "to",
          "type": "address"
        },
        {
          "internalType": "uint256",
          "name": "tokenId",
          "type": "uint256"
        }
      ],
      "name": "approve",
      "outputs": [],
      "stateMutability": "nonpayable",
      "type": "function"
    },
    {
      "inputs": [
        {
          "internalType": "address",
          "name": "owner",
          "type": "address"
        }
      ],
      "name": "balanceOf",
      "outputs": [
        {
          "internalType": "uint256",
          "name": "",
          "type": "uint256"
        }
      ],
      "stateMutability": "view",
      "type": "function"
    },
    {
      "inputs": [],
      "name": "donate",
      "outputs": [],
      "stateMutability": "payable",
      "type": "function"
    },
    {
      "inputs": [
        {
          "internalType": "uint256",
          "name": "",
          "type": "uint256"
        }
      ],
      "name": "donationExists",
      "outputs": [
        {
          "internalType": "bool",
          "name": "",
          "type": "bool"
        }
      ],
      "stateMutability": "view",
      "type": "function"
    },
    {
      "inputs": [
        {
          "internalType": "uint256",
          "name": "",
          "type": "uint256"
        }
      ],
      "name": "donations",
      "outputs": [
        {
          "internalType": "uint256",
          "name": "amount",
          "type": "uint256"
        },
        {
          "internalType": "uint256",
          "name": "timestamp",
          "type": "uint256"
        }
      ],
      "stateMutability": "view",
      "type": "function"
    },
    {
      "inputs": [
        {
          "internalType": "uint256",
          "name": "tokenId",
          "type": "uint256"
        }
      ],
      "name": "getApproved",
      "outputs": [
        {
          "internalType": "address",
          "name": "",
          "type": "address"
        }
      ],
      "stateMutability": "view",
      "type": "function"
    },
    {
      "inputs": [
        {
          "internalType": "uint256",
          "name": "donationId",
          "type": "uint256"
        }
      ],
      "name": "getDonationDetails",
      "outputs": [
        {
          "internalType": "uint256",
          "name": "",
          "type": "uint256"
        },
        {
          "internalType": "uint256",
          "name": "",
          "type": "uint256"
        }
      ],
      "stateMutability": "view",
      "type": "function"
    },
    {
      "inputs": [],
      "name": "getPrice",
      "outputs": [
        {
          "internalType": "uint256",
          "name": "",
          "type": "uint256"
        }
      ],
      "stateMutability": "view",
      "type": "function"
    },
    {
      "inputs": [
        {
          "internalType": "address",
          "name": "owner",
          "type": "address"
        },
        {
          "internalType": "address",
          "name": "operator",
          "type": "address"
        }
      ],
      "name": "isApprovedForAll",
      "outputs": [
        {
          "internalType": "bool",
          "name": "",
          "type": "bool"
        }
      ],
      "stateMutability": "view",
      "type": "function"
    },
    {
      "inputs": [],
      "name": "name",
      "outputs": [
        {
          "internalType": "string",
          "name": "",
          "type": "string"
        }
      ],
      "stateMutability": "view",
      "type": "function"
    },
    {
      "inputs": [],
      "name": "nbDonationsTotal",
      "outputs": [
        {
          "internalType": "uint256",
          "name": "",
          "type": "uint256"
        }
      ],
      "stateMutability": "view",
      "type": "function"
    },
    {
      "inputs": [],
      "name": "owner",
      "outputs": [
        {
          "internalType": "address",
          "name": "",
          "type": "address"
        }
      ],
      "stateMutability": "view",
      "type": "function"
    },
    {
      "inputs": [
        {
          "internalType": "uint256",
          "name": "tokenId",
          "type": "uint256"
        }
      ],
      "name": "ownerOf",
      "outputs": [
        {
          "internalType": "address",
          "name": "",
          "type": "address"
        }
      ],
      "stateMutability": "view",
      "type": "function"
    },
    {
      "inputs": [],
      "name": "renounceOwnership",
      "outputs": [],
      "stateMutability": "nonpayable",
      "type": "function"
    },
    {
      "inputs": [
        {
          "internalType": "address",
          "name": "from",
          "type": "address"
        },
        {
          "internalType": "address",
          "name": "to",
          "type": "address"
        },
        {
          "internalType": "uint256",
          "name": "tokenId",
          "type": "uint256"
        }
      ],
      "name": "safeTransferFrom",
      "outputs": [],
      "stateMutability": "nonpayable",
      "type": "function"
    },
    {
      "inputs": [
        {
          "internalType": "address",
          "name": "from",
          "type": "address"
        },
        {
          "internalType": "address",
          "name": "to",
          "type": "address"
        },
        {
          "internalType": "uint256",
          "name": "tokenId",
          "type": "uint256"
        },
        {
          "internalType": "bytes",
          "name": "data",
          "type": "bytes"
        }
      ],
      "name": "safeTransferFrom",
      "outputs": [],
      "stateMutability": "nonpayable",
      "type": "function"
    },
    {
      "inputs": [
        {
          "internalType": "address",
          "name": "operator",
          "type": "address"
        },
        {
          "internalType": "bool",
          "name": "approved",
          "type": "bool"
        }
      ],
      "name": "setApprovalForAll",
      "outputs": [],
      "stateMutability": "nonpayable",
      "type": "function"
    },
    {
      "inputs": [
        {
          "internalType": "uint256",
          "name": "_newPrice",
          "type": "uint256"
        }
      ],
      "name": "setPrice",
      "outputs": [],
      "stateMutability": "nonpayable",
      "type": "function"
    },
    {
      "inputs": [
        {
          "internalType": "bytes4",
          "name": "interfaceId",
          "type": "bytes4"
        }
      ],
      "name": "supportsInterface",
      "outputs": [
        {
          "internalType": "bool",
          "name": "",
          "type": "bool"
        }
      ],
      "stateMutability": "view",
      "type": "function"
    },
    {
      "inputs": [],
      "name": "symbol",
      "outputs": [
        {
          "internalType": "string",
          "name": "",
          "type": "string"
        }
      ],
      "stateMutability": "view",
      "type": "function"
    },
    {
      "inputs": [
        {
          "internalType": "uint256",
          "name": "index",
          "type": "uint256"
        }
      ],
      "name": "tokenByIndex",
      "outputs": [
        {
          "internalType": "uint256",
          "name": "",
          "type": "uint256"
        }
      ],
      "stateMutability": "view",
      "type": "function"
    },
    {
      "inputs": [
        {
          "internalType": "address",
          "name": "owner",
          "type": "address"
        },
        {
          "internalType": "uint256",
          "name": "index",
          "type": "uint256"
        }
      ],
      "name": "tokenOfOwnerByIndex",
      "outputs": [
        {
          "internalType": "uint256",
          "name": "",
          "type": "uint256"
        }
      ],
      "stateMutability": "view",
      "type": "function"
    },
    {
      "inputs": [
        {
          "internalType": "uint256",
          "name": "tokenId",
          "type": "uint256"
        }
      ],
      "name": "tokenURI",
      "outputs": [
        {
          "internalType": "string",
          "name": "",
          "type": "string"
        }
      ],
      "stateMutability": "view",
      "type": "function"
    },
    {
      "inputs": [],
      "name": "totalSupply",
      "outputs": [
        {
          "internalType": "uint256",
          "name": "",
          "type": "uint256"
        }
      ],
      "stateMutability": "view",
      "type": "function"
    },
    {
      "inputs": [
        {
          "internalType": "address",
          "name": "from",
          "type": "address"
        },
        {
          "internalType": "address",
          "name": "to",
          "type": "address"
        },
        {
          "internalType": "uint256",
          "name": "tokenId",
          "type": "uint256"
        }
      ],
      "name": "transferFrom",
      "outputs": [],
      "stateMutability": "nonpayable",
      "type": "function"
    },
    {
      "inputs": [
        {
          "internalType": "address",
          "name": "newOwner",
          "type": "address"
        }
      ],
      "name": "transferOwnership",
      "outputs": [],
      "stateMutability": "nonpayable",
      "type": "function"
    },
    {
      "inputs": [
        {
          "internalType": "address",
          "name": "_owner",
          "type": "address"
        }
      ],
      "name": "walletOfOwner",
      "outputs": [
        {
          "internalType": "uint256[]",
          "name": "",
          "type": "uint256[]"
        }
      ],
      "stateMutability": "view",
      "type": "function"
    },
    {
      "inputs": [],
      "name": "withdraw",
      "outputs": [],
      "stateMutability": "nonpayable",
      "type": "function"
    }
  ],
  "transactionHash": "0x4902ab6cd22b57d7b03c5a60012221ec74979b69bcecbf84fdd0b7828791abf8",
  "args": [],
  "numDeployments": 1,
  "solcInputHash": "da0955bc87e1e78febf63da5198effd1",
  "bytecode": "0x6080604052652d79883d2000600e553480156200001a575f80fd5b506040518060400160405280600581526020017f526f4465630000000000000000000000000000000000000000000000000000008152506040518060400160405280600381526020017f5244430000000000000000000000000000000000000000000000000000000000815250815f908162000097919062000400565b508060019081620000a9919062000400565b505050620000cc620000c0620000d260201b60201c565b620000d960201b60201c565b620004e4565b5f33905090565b5f600a5f9054906101000a900473ffffffffffffffffffffffffffffffffffffffff16905081600a5f6101000a81548173ffffffffffffffffffffffffffffffffffffffff021916908373ffffffffffffffffffffffffffffffffffffffff1602179055508173ffffffffffffffffffffffffffffffffffffffff168173ffffffffffffffffffffffffffffffffffffffff167f8be0079c531659141344cd1fd0a4f28419497f9722a3daafe3b4186f6b6457e060405160405180910390a35050565b5f81519050919050565b7f4e487b71000000000000000000000000000000000000000000000000000000005f52604160045260245ffd5b7f4e487b71000000000000000000000000000000000000000000000000000000005f52602260045260245ffd5b5f60028204905060018216806200021857607f821691505b6020821081036200022e576200022d620001d3565b5b50919050565b5f819050815f5260205f209050919050565b5f6020601f8301049050919050565b5f82821b905092915050565b5f60088302620002927fffffffffffffffffffffffffffffffffffffffffffffffffffffffffffffffff8262000255565b6200029e868362000255565b95508019841693508086168417925050509392505050565b5f819050919050565b5f819050919050565b5f620002e8620002e2620002dc84620002b6565b620002bf565b620002b6565b9050919050565b5f819050919050565b6200030383620002c8565b6200031b6200031282620002ef565b84845462000261565b825550505050565b5f90565b6200033162000323565b6200033e818484620002f8565b505050565b5b818110156200036557620003595f8262000327565b60018101905062000344565b5050565b601f821115620003b4576200037e8162000234565b620003898462000246565b8101602085101562000399578190505b620003b1620003a88562000246565b83018262000343565b50505b505050565b5f82821c905092915050565b5f620003d65f1984600802620003b9565b1980831691505092915050565b5f620003f08383620003c5565b9150826002028217905092915050565b6200040b826200019c565b67ffffffffffffffff811115620004275762000426620001a6565b5b62000433825462000200565b6200044082828562000369565b5f60209050601f83116001811462000476575f841562000461578287015190505b6200046d8582620003e3565b865550620004dc565b601f198416620004868662000234565b5f5b82811015620004af5784890151825560018201915060208501945060208101905062000488565b86831015620004cf5784890151620004cb601f891682620003c5565b8355505b6001600288020188555050505b505050505050565b613a5a80620004f25f395ff3fe6080604052600436106101b6575f3560e01c8063715018a6116100eb578063c87b56dd11610089578063eb564d3511610063578063eb564d351461062a578063ed88c68e14610667578063f2fde38b14610671578063f8626af814610699576101b6565b8063c87b56dd14610588578063e731bfdd146105c4578063e985e9c5146105ee576101b6565b806395d89b41116100c557806395d89b41146104e457806398d5fdca1461050e578063a22cb46514610538578063b88d4fde14610560576101b6565b8063715018a61461047c5780638da5cb5b1461049257806391b7f5ed146104bc576101b6565b80632f745c5911610158578063438b630011610132578063438b63001461038c5780634f6ccce7146103c85780636352211e1461040457806370a0823114610440576101b6565b80632f745c59146103125780633ccfd60b1461034e57806342842e0e14610364576101b6565b8063095ea7b311610194578063095ea7b31461025c57806318160ddd1461028457806323b872dd146102ae57806324f1306f146102d6576101b6565b806301ffc9a7146101ba57806306fdde03146101f6578063081812fc14610220575b5f80fd5b3480156101c5575f80fd5b506101e060048036038101906101db9190612745565b6106d6565b6040516101ed919061278a565b60405180910390f35b348015610201575f80fd5b5061020a6106e7565b604051610217919061282d565b60405180910390f35b34801561022b575f80fd5b5061024660048036038101906102419190612880565b610776565b60405161025391906128ea565b60405180910390f35b348015610267575f80fd5b50610282600480360381019061027d919061292d565b6107b8565b005b34801561028f575f80fd5b506102986108ce565b6040516102a5919061297a565b60405180910390f35b3480156102b9575f80fd5b506102d460048036038101906102cf9190612993565b6108da565b005b3480156102e1575f80fd5b506102fc60048036038101906102f79190612880565b61093a565b604051610309919061278a565b60405180910390f35b34801561031d575f80fd5b506103386004803603810190610333919061292d565b610957565b604051610345919061297a565b60405180910390f35b348015610359575f80fd5b506103626109f7565b005b34801561036f575f80fd5b5061038a60048036038101906103859190612993565b610aaa565b005b348015610397575f80fd5b506103b260048036038101906103ad91906129e3565b610ac9565b6040516103bf9190612ac5565b60405180910390f35b3480156103d3575f80fd5b506103ee60048036038101906103e99190612880565b610b74565b6040516103fb919061297a565b60405180910390f35b34801561040f575f80fd5b5061042a60048036038101906104259190612880565b610be2565b60405161043791906128ea565b60405180910390f35b34801561044b575f80fd5b50610466600480360381019061046191906129e3565b610c66565b604051610473919061297a565b60405180910390f35b348015610487575f80fd5b50610490610d1a565b005b34801561049d575f80fd5b506104a6610d2d565b6040516104b391906128ea565b60405180910390f35b3480156104c7575f80fd5b506104e260048036038101906104dd9190612880565b610d55565b005b3480156104ef575f80fd5b506104f8610d67565b604051610505919061282d565b60405180910390f35b348015610519575f80fd5b50610522610df7565b60405161052f919061297a565b60405180910390f35b348015610543575f80fd5b5061055e60048036038101906105599190612b0f565b610e00565b005b34801561056b575f80fd5b5061058660048036038101906105819190612c79565b610e16565b005b348015610593575f80fd5b506105ae60048036038101906105a99190612880565b610e78565b6040516105bb919061282d565b60405180910390f35b3480156105cf575f80fd5b506105d8610edd565b6040516105e5919061297a565b60405180910390f35b3480156105f9575f80fd5b50610614600480360381019061060f9190612cf9565b610eed565b604051610621919061278a565b60405180910390f35b348015610635575f80fd5b50610650600480360381019061064b9190612880565b610f7b565b60405161065e929190612d37565b60405180910390f35b61066f61101f565b005b34801561067c575f80fd5b50610697600480360381019061069291906129e3565b61113d565b005b3480156106a4575f80fd5b506106bf60048036038101906106ba9190612880565b6111bf565b6040516106cd929190612d37565b60405180910390f35b5f6106e0826111df565b9050919050565b60605f80546106f590612d8b565b80601f016020809104026020016040519081016040528092919081815260200182805461072190612d8b565b801561076c5780601f106107435761010080835404028352916020019161076c565b820191905f5260205f20905b81548152906001019060200180831161074f57829003601f168201915b5050505050905090565b5f61078082611258565b60045f8381526020019081526020015f205f9054906101000a900473ffffffffffffffffffffffffffffffffffffffff169050919050565b5f6107c282610be2565b90508073ffffffffffffffffffffffffffffffffffffffff168373ffffffffffffffffffffffffffffffffffffffff1603610832576040517f08c379a000000000000000000000000000000000000000000000000000000000815260040161082990612e2b565b60405180910390fd5b8073ffffffffffffffffffffffffffffffffffffffff166108516112a3565b73ffffffffffffffffffffffffffffffffffffffff161480610880575061087f8161087a6112a3565b610eed565b5b6108bf576040517f08c379a00000000000000000000000000000000000000000000000000000000081526004016108b690612eb9565b60405180910390fd5b6108c983836112aa565b505050565b5f600880549050905090565b6108eb6108e56112a3565b82611360565b61092a576040517f08c379a000000000000000000000000000000000000000000000000000000000815260040161092190612f47565b60405180910390fd5b6109358383836113f4565b505050565b600d602052805f5260405f205f915054906101000a900460ff1681565b5f61096183610c66565b82106109a2576040517f08c379a000000000000000000000000000000000000000000000000000000000815260040161099990612fd5565b60405180910390fd5b60065f8473ffffffffffffffffffffffffffffffffffffffff1673ffffffffffffffffffffffffffffffffffffffff1681526020019081526020015f205f8381526020019081526020015f2054905092915050565b6109ff6116e0565b5f3373ffffffffffffffffffffffffffffffffffffffff1647604051610a2490613020565b5f6040518083038185875af1925050503d805f8114610a5e576040519150601f19603f3d011682016040523d82523d5f602084013e610a63565b606091505b5050905080610aa7576040517f08c379a0000000000000000000000000000000000000000000000000000000008152600401610a9e9061307e565b60405180910390fd5b50565b610ac483838360405180602001604052805f815250610e16565b505050565b60605f610ad583610c66565b90505f8167ffffffffffffffff811115610af257610af1612b55565b5b604051908082528060200260200182016040528015610b205781602001602082028036833780820191505090505b5090505f5b82811015610b6957610b378582610957565b828281518110610b4a57610b4961309c565b5b6020026020010181815250508080610b61906130f6565b915050610b25565b508092505050919050565b5f610b7d6108ce565b8210610bbe576040517f08c379a0000000000000000000000000000000000000000000000000000000008152600401610bb5906131ad565b60405180910390fd5b60088281548110610bd257610bd161309c565b5b905f5260205f2001549050919050565b5f80610bed8361175e565b90505f73ffffffffffffffffffffffffffffffffffffffff168173ffffffffffffffffffffffffffffffffffffffff1603610c5d576040517f08c379a0000000000000000000000000000000000000000000000000000000008152600401610c5490613215565b60405180910390fd5b80915050919050565b5f8073ffffffffffffffffffffffffffffffffffffffff168273ffffffffffffffffffffffffffffffffffffffff1603610cd5576040517f08c379a0000000000000000000000000000000000000000000000000000000008152600401610ccc906132a3565b60405180910390fd5b60035f8373ffffffffffffffffffffffffffffffffffffffff1673ffffffffffffffffffffffffffffffffffffffff1681526020019081526020015f20549050919050565b610d226116e0565b610d2b5f611797565b565b5f600a5f9054906101000a900473ffffffffffffffffffffffffffffffffffffffff16905090565b610d5d6116e0565b80600e8190555050565b606060018054610d7690612d8b565b80601f0160208091040260200160405190810160405280929190818152602001828054610da290612d8b565b8015610ded5780601f10610dc457610100808354040283529160200191610ded565b820191905f5260205f20905b815481529060010190602001808311610dd057829003601f168201915b5050505050905090565b5f600e54905090565b610e12610e0b6112a3565b838361185a565b5050565b610e27610e216112a3565b83611360565b610e66576040517f08c379a0000000000000000000000000000000000000000000000000000000008152600401610e5d90612f47565b60405180910390fd5b610e72848484846119c1565b50505050565b6060610e8382611258565b5f610e8c611a1d565b90505f815111610eaa5760405180602001604052805f815250610ed5565b80610eb484611a33565b604051602001610ec59291906132fb565b6040516020818303038152906040525b915050919050565b5f610ee8600b611afd565b905090565b5f60055f8473ffffffffffffffffffffffffffffffffffffffff1673ffffffffffffffffffffffffffffffffffffffff1681526020019081526020015f205f8373ffffffffffffffffffffffffffffffffffffffff1673ffffffffffffffffffffffffffffffffffffffff1681526020019081526020015f205f9054906101000a900460ff16905092915050565b5f80600d5f8481526020019081526020015f205f9054906101000a900460ff16610fda576040517f08c379a0000000000000000000000000000000000000000000000000000000008152600401610fd190613368565b60405180910390fd5b5f600c5f8581526020019081526020015f206040518060400160405290815f82015481526020016001820154815250509050805f015181602001519250925050915091565b600e54341015611064576040517f08c379a000000000000000000000000000000000000000000000000000000000815260040161105b906133d0565b60405180910390fd5b5f61106f600b611afd565b905061107b3382611b09565b604051806040016040528034815260200142815250600c5f8381526020019081526020015f205f820151815f0155602082015181600101559050506001600d5f8381526020019081526020015f205f6101000a81548160ff0219169083151502179055506110e9600b611b26565b803373ffffffffffffffffffffffffffffffffffffffff167fab17a5fe3354c66071b173a5b27e11f7a6a419514823eba22f2f408978cba7103442604051611132929190612d37565b60405180910390a350565b6111456116e0565b5f73ffffffffffffffffffffffffffffffffffffffff168173ffffffffffffffffffffffffffffffffffffffff16036111b3576040517f08c379a00000000000000000000000000000000000000000000000000000000081526004016111aa9061345e565b60405180910390fd5b6111bc81611797565b50565b600c602052805f5260405f205f91509050805f0154908060010154905082565b5f7f780e9d63000000000000000000000000000000000000000000000000000000007bffffffffffffffffffffffffffffffffffffffffffffffffffffffff1916827bffffffffffffffffffffffffffffffffffffffffffffffffffffffff19161480611251575061125082611b3a565b5b9050919050565b61126181611c1b565b6112a0576040517f08c379a000000000000000000000000000000000000000000000000000000000815260040161129790613215565b60405180910390fd5b50565b5f33905090565b8160045f8381526020019081526020015f205f6101000a81548173ffffffffffffffffffffffffffffffffffffffff021916908373ffffffffffffffffffffffffffffffffffffffff160217905550808273ffffffffffffffffffffffffffffffffffffffff1661131a83610be2565b73ffffffffffffffffffffffffffffffffffffffff167f8c5be1e5ebec7d5bd14f71427d1e84f3dd0314c0f7b2291e5b200ac8c7c3b92560405160405180910390a45050565b5f8061136b83610be2565b90508073ffffffffffffffffffffffffffffffffffffffff168473ffffffffffffffffffffffffffffffffffffffff1614806113ad57506113ac8185610eed565b5b806113eb57508373ffffffffffffffffffffffffffffffffffffffff166113d384610776565b73ffffffffffffffffffffffffffffffffffffffff16145b91505092915050565b8273ffffffffffffffffffffffffffffffffffffffff1661141482610be2565b73ffffffffffffffffffffffffffffffffffffffff161461146a576040517f08c379a0000000000000000000000000000000000000000000000000000000008152600401611461906134ec565b60405180910390fd5b5f73ffffffffffffffffffffffffffffffffffffffff168273ffffffffffffffffffffffffffffffffffffffff16036114d8576040517f08c379a00000000000000000000000000000000000000000000000000000000081526004016114cf9061357a565b60405180910390fd5b6114e58383836001611c5b565b8273ffffffffffffffffffffffffffffffffffffffff1661150582610be2565b73ffffffffffffffffffffffffffffffffffffffff161461155b576040517f08c379a0000000000000000000000000000000000000000000000000000000008152600401611552906134ec565b60405180910390fd5b60045f8281526020019081526020015f205f6101000a81549073ffffffffffffffffffffffffffffffffffffffff0219169055600160035f8573ffffffffffffffffffffffffffffffffffffffff1673ffffffffffffffffffffffffffffffffffffffff1681526020019081526020015f205f8282540392505081905550600160035f8473ffffffffffffffffffffffffffffffffffffffff1673ffffffffffffffffffffffffffffffffffffffff1681526020019081526020015f205f82825401925050819055508160025f8381526020019081526020015f205f6101000a81548173ffffffffffffffffffffffffffffffffffffffff021916908373ffffffffffffffffffffffffffffffffffffffff160217905550808273ffffffffffffffffffffffffffffffffffffffff168473ffffffffffffffffffffffffffffffffffffffff167fddf252ad1be2c89b69c2b068fc378daa952ba7f163c4a11628f55a4df523b3ef60405160405180910390a46116db8383836001611cdb565b505050565b6116e86112a3565b73ffffffffffffffffffffffffffffffffffffffff16611706610d2d565b73ffffffffffffffffffffffffffffffffffffffff161461175c576040517f08c379a0000000000000000000000000000000000000000000000000000000008152600401611753906135e2565b60405180910390fd5b565b5f60025f8381526020019081526020015f205f9054906101000a900473ffffffffffffffffffffffffffffffffffffffff169050919050565b5f600a5f9054906101000a900473ffffffffffffffffffffffffffffffffffffffff16905081600a5f6101000a81548173ffffffffffffffffffffffffffffffffffffffff021916908373ffffffffffffffffffffffffffffffffffffffff1602179055508173ffffffffffffffffffffffffffffffffffffffff168173ffffffffffffffffffffffffffffffffffffffff167f8be0079c531659141344cd1fd0a4f28419497f9722a3daafe3b4186f6b6457e060405160405180910390a35050565b8173ffffffffffffffffffffffffffffffffffffffff168373ffffffffffffffffffffffffffffffffffffffff16036118c8576040517f08c379a00000000000000000000000000000000000000000000000000000000081526004016118bf9061364a565b60405180910390fd5b8060055f8573ffffffffffffffffffffffffffffffffffffffff1673ffffffffffffffffffffffffffffffffffffffff1681526020019081526020015f205f8473ffffffffffffffffffffffffffffffffffffffff1673ffffffffffffffffffffffffffffffffffffffff1681526020019081526020015f205f6101000a81548160ff0219169083151502179055508173ffffffffffffffffffffffffffffffffffffffff168373ffffffffffffffffffffffffffffffffffffffff167f17307eab39ab6107e8899845ad3d59bd9653f200f220920489ca2b5937696c31836040516119b4919061278a565b60405180910390a3505050565b6119cc8484846113f4565b6119d884848484611ce1565b611a17576040517f08c379a0000000000000000000000000000000000000000000000000000000008152600401611a0e906136d8565b60405180910390fd5b50505050565b606060405180602001604052805f815250905090565b60605f6001611a4184611e63565b0190505f8167ffffffffffffffff811115611a5f57611a5e612b55565b5b6040519080825280601f01601f191660200182016040528015611a915781602001600182028036833780820191505090505b5090505f82602001820190505b600115611af2578080600190039150507f3031323334353637383961626364656600000000000000000000000000000000600a86061a8153600a8581611ae757611ae66136f6565b5b0494505f8503611a9e575b819350505050919050565b5f815f01549050919050565b611b22828260405180602001604052805f815250611fb4565b5050565b6001815f015f828254019250508190555050565b5f7f80ac58cd000000000000000000000000000000000000000000000000000000007bffffffffffffffffffffffffffffffffffffffffffffffffffffffff1916827bffffffffffffffffffffffffffffffffffffffffffffffffffffffff19161480611c0457507f5b5e139f000000000000000000000000000000000000000000000000000000007bffffffffffffffffffffffffffffffffffffffffffffffffffffffff1916827bffffffffffffffffffffffffffffffffffffffffffffffffffffffff1916145b80611c145750611c138261200e565b5b9050919050565b5f8073ffffffffffffffffffffffffffffffffffffffff16611c3c8361175e565b73ffffffffffffffffffffffffffffffffffffffff1614159050919050565b5f73ffffffffffffffffffffffffffffffffffffffff168473ffffffffffffffffffffffffffffffffffffffff1614611cc9576040517f08c379a0000000000000000000000000000000000000000000000000000000008152600401611cc09061376d565b60405180910390fd5b611cd584848484612077565b50505050565b50505050565b5f611d018473ffffffffffffffffffffffffffffffffffffffff166121d2565b15611e56578373ffffffffffffffffffffffffffffffffffffffff1663150b7a02611d2a6112a3565b8786866040518563ffffffff1660e01b8152600401611d4c94939291906137dd565b6020604051808303815f875af1925050508015611d8757506040513d601f19601f82011682018060405250810190611d84919061383b565b60015b611e06573d805f8114611db5576040519150601f19603f3d011682016040523d82523d5f602084013e611dba565b606091505b505f815103611dfe576040517f08c379a0000000000000000000000000000000000000000000000000000000008152600401611df5906136d8565b60405180910390fd5b805181602001fd5b63150b7a0260e01b7bffffffffffffffffffffffffffffffffffffffffffffffffffffffff1916817bffffffffffffffffffffffffffffffffffffffffffffffffffffffff191614915050611e5b565b600190505b949350505050565b5f805f90507a184f03e93ff9f4daa797ed6e38ed64bf6a1f0100000000000000008310611ebf577a184f03e93ff9f4daa797ed6e38ed64bf6a1f0100000000000000008381611eb557611eb46136f6565b5b0492506040810190505b6d04ee2d6d415b85acef81000000008310611efc576d04ee2d6d415b85acef81000000008381611ef257611ef16136f6565b5b0492506020810190505b662386f26fc100008310611f2b57662386f26fc100008381611f2157611f206136f6565b5b0492506010810190505b6305f5e1008310611f54576305f5e1008381611f4a57611f496136f6565b5b0492506008810190505b6127108310611f79576127108381611f6f57611f6e6136f6565b5b0492506004810190505b60648310611f9c5760648381611f9257611f916136f6565b5b0492506002810190505b600a8310611fab576001810190505b80915050919050565b611fbe83836121f4565b611fca5f848484611ce1565b612009576040517f08c379a0000000000000000000000000000000000000000000000000000000008152600401612000906136d8565b60405180910390fd5b505050565b5f7f01ffc9a7000000000000000000000000000000000000000000000000000000007bffffffffffffffffffffffffffffffffffffffffffffffffffffffff1916827bffffffffffffffffffffffffffffffffffffffffffffffffffffffff1916149050919050565b61208384848484612407565b60018111156120c7576040517f08c379a00000000000000000000000000000000000000000000000000000000081526004016120be906138d6565b60405180910390fd5b5f8290505f73ffffffffffffffffffffffffffffffffffffffff168573ffffffffffffffffffffffffffffffffffffffff160361210c576121078161240d565b61214b565b8373ffffffffffffffffffffffffffffffffffffffff168573ffffffffffffffffffffffffffffffffffffffff161461214a576121498582612451565b5b5b5f73ffffffffffffffffffffffffffffffffffffffff168473ffffffffffffffffffffffffffffffffffffffff160361218c57612187816125a7565b6121cb565b8473ffffffffffffffffffffffffffffffffffffffff168473ffffffffffffffffffffffffffffffffffffffff16146121ca576121c98482612667565b5b5b5050505050565b5f808273ffffffffffffffffffffffffffffffffffffffff163b119050919050565b5f73ffffffffffffffffffffffffffffffffffffffff168273ffffffffffffffffffffffffffffffffffffffff1603612262576040517f08c379a00000000000000000000000000000000000000000000000000000000081526004016122599061393e565b60405180910390fd5b61226b81611c1b565b156122ab576040517f08c379a00000000000000000000000000000000000000000000000000000000081526004016122a2906139a6565b60405180910390fd5b6122b85f83836001611c5b565b6122c181611c1b565b15612301576040517f08c379a00000000000000000000000000000000000000000000000000000000081526004016122f8906139a6565b60405180910390fd5b600160035f8473ffffffffffffffffffffffffffffffffffffffff1673ffffffffffffffffffffffffffffffffffffffff1681526020019081526020015f205f82825401925050819055508160025f8381526020019081526020015f205f6101000a81548173ffffffffffffffffffffffffffffffffffffffff021916908373ffffffffffffffffffffffffffffffffffffffff160217905550808273ffffffffffffffffffffffffffffffffffffffff165f73ffffffffffffffffffffffffffffffffffffffff167fddf252ad1be2c89b69c2b068fc378daa952ba7f163c4a11628f55a4df523b3ef60405160405180910390a46124035f83836001611cdb565b5050565b50505050565b60088054905060095f8381526020019081526020015f2081905550600881908060018154018082558091505060019003905f5260205f20015f909190919091505550565b5f600161245d84610c66565b61246791906139c4565b90505f60075f8481526020019081526020015f2054905081811461253e575f60065f8673ffffffffffffffffffffffffffffffffffffffff1673ffffffffffffffffffffffffffffffffffffffff1681526020019081526020015f205f8481526020019081526020015f205490508060065f8773ffffffffffffffffffffffffffffffffffffffff1673ffffffffffffffffffffffffffffffffffffffff1681526020019081526020015f205f8481526020019081526020015f20819055508160075f8381526020019081526020015f2081905550505b60075f8481526020019081526020015f205f905560065f8573ffffffffffffffffffffffffffffffffffffffff1673ffffffffffffffffffffffffffffffffffffffff1681526020019081526020015f205f8381526020019081526020015f205f905550505050565b5f60016008805490506125ba91906139c4565b90505f60095f8481526020019081526020015f205490505f600883815481106125e6576125e561309c565b5b905f5260205f200154905080600883815481106126065761260561309c565b5b905f5260205f2001819055508160095f8381526020019081526020015f208190555060095f8581526020019081526020015f205f9055600880548061264e5761264d6139f7565b5b600190038181905f5260205f20015f9055905550505050565b5f61267183610c66565b90508160065f8573ffffffffffffffffffffffffffffffffffffffff1673ffffffffffffffffffffffffffffffffffffffff1681526020019081526020015f205f8381526020019081526020015f20819055508060075f8481526020019081526020015f2081905550505050565b5f604051905090565b5f80fd5b5f80fd5b5f7fffffffff0000000000000000000000000000000000000000000000000000000082169050919050565b612724816126f0565b811461272e575f80fd5b50565b5f8135905061273f8161271b565b92915050565b5f6020828403121561275a576127596126e8565b5b5f61276784828501612731565b91505092915050565b5f8115159050919050565b61278481612770565b82525050565b5f60208201905061279d5f83018461277b565b92915050565b5f81519050919050565b5f82825260208201905092915050565b5f5b838110156127da5780820151818401526020810190506127bf565b5f8484015250505050565b5f601f19601f8301169050919050565b5f6127ff826127a3565b61280981856127ad565b93506128198185602086016127bd565b612822816127e5565b840191505092915050565b5f6020820190508181035f83015261284581846127f5565b905092915050565b5f819050919050565b61285f8161284d565b8114612869575f80fd5b50565b5f8135905061287a81612856565b92915050565b5f60208284031215612895576128946126e8565b5b5f6128a28482850161286c565b91505092915050565b5f73ffffffffffffffffffffffffffffffffffffffff82169050919050565b5f6128d4826128ab565b9050919050565b6128e4816128ca565b82525050565b5f6020820190506128fd5f8301846128db565b92915050565b61290c816128ca565b8114612916575f80fd5b50565b5f8135905061292781612903565b92915050565b5f8060408385031215612943576129426126e8565b5b5f61295085828601612919565b92505060206129618582860161286c565b9150509250929050565b6129748161284d565b82525050565b5f60208201905061298d5f83018461296b565b92915050565b5f805f606084860312156129aa576129a96126e8565b5b5f6129b786828701612919565b93505060206129c886828701612919565b92505060406129d98682870161286c565b9150509250925092565b5f602082840312156129f8576129f76126e8565b5b5f612a0584828501612919565b91505092915050565b5f81519050919050565b5f82825260208201905092915050565b5f819050602082019050919050565b612a408161284d565b82525050565b5f612a518383612a37565b60208301905092915050565b5f602082019050919050565b5f612a7382612a0e565b612a7d8185612a18565b9350612a8883612a28565b805f5b83811015612ab8578151612a9f8882612a46565b9750612aaa83612a5d565b925050600181019050612a8b565b5085935050505092915050565b5f6020820190508181035f830152612add8184612a69565b905092915050565b612aee81612770565b8114612af8575f80fd5b50565b5f81359050612b0981612ae5565b92915050565b5f8060408385031215612b2557612b246126e8565b5b5f612b3285828601612919565b9250506020612b4385828601612afb565b9150509250929050565b5f80fd5b5f80fd5b7f4e487b71000000000000000000000000000000000000000000000000000000005f52604160045260245ffd5b612b8b826127e5565b810181811067ffffffffffffffff82111715612baa57612ba9612b55565b5b80604052505050565b5f612bbc6126df565b9050612bc88282612b82565b919050565b5f67ffffffffffffffff821115612be757612be6612b55565b5b612bf0826127e5565b9050602081019050919050565b828183375f83830152505050565b5f612c1d612c1884612bcd565b612bb3565b905082815260208101848484011115612c3957612c38612b51565b5b612c44848285612bfd565b509392505050565b5f82601f830112612c6057612c5f612b4d565b5b8135612c70848260208601612c0b565b91505092915050565b5f805f8060808587031215612c9157612c906126e8565b5b5f612c9e87828801612919565b9450506020612caf87828801612919565b9350506040612cc08782880161286c565b925050606085013567ffffffffffffffff811115612ce157612ce06126ec565b5b612ced87828801612c4c565b91505092959194509250565b5f8060408385031215612d0f57612d0e6126e8565b5b5f612d1c85828601612919565b9250506020612d2d85828601612919565b9150509250929050565b5f604082019050612d4a5f83018561296b565b612d57602083018461296b565b9392505050565b7f4e487b71000000000000000000000000000000000000000000000000000000005f52602260045260245ffd5b5f6002820490506001821680612da257607f821691505b602082108103612db557612db4612d5e565b5b50919050565b7f4552433732313a20617070726f76616c20746f2063757272656e74206f776e655f8201527f7200000000000000000000000000000000000000000000000000000000000000602082015250565b5f612e156021836127ad565b9150612e2082612dbb565b604082019050919050565b5f6020820190508181035f830152612e4281612e09565b9050919050565b7f4552433732313a20617070726f76652063616c6c6572206973206e6f7420746f5f8201527f6b656e206f776e6572206f7220617070726f76656420666f7220616c6c000000602082015250565b5f612ea3603d836127ad565b9150612eae82612e49565b604082019050919050565b5f6020820190508181035f830152612ed081612e97565b9050919050565b7f4552433732313a2063616c6c6572206973206e6f7420746f6b656e206f776e655f8201527f72206f7220617070726f76656400000000000000000000000000000000000000602082015250565b5f612f31602d836127ad565b9150612f3c82612ed7565b604082019050919050565b5f6020820190508181035f830152612f5e81612f25565b9050919050565b7f455243373231456e756d657261626c653a206f776e657220696e646578206f755f8201527f74206f6620626f756e6473000000000000000000000000000000000000000000602082015250565b5f612fbf602b836127ad565b9150612fca82612f65565b604082019050919050565b5f6020820190508181035f830152612fec81612fb3565b9050919050565b5f81905092915050565b50565b5f61300b5f83612ff3565b915061301682612ffd565b5f82019050919050565b5f61302a82613000565b9150819050919050565b7f5769746864726177616c206661696c65640000000000000000000000000000005f82015250565b5f6130686011836127ad565b915061307382613034565b602082019050919050565b5f6020820190508181035f8301526130958161305c565b9050919050565b7f4e487b71000000000000000000000000000000000000000000000000000000005f52603260045260245ffd5b7f4e487b71000000000000000000000000000000000000000000000000000000005f52601160045260245ffd5b5f6131008261284d565b91507fffffffffffffffffffffffffffffffffffffffffffffffffffffffffffffffff8203613132576131316130c9565b5b600182019050919050565b7f455243373231456e756d657261626c653a20676c6f62616c20696e646578206f5f8201527f7574206f6620626f756e64730000000000000000000000000000000000000000602082015250565b5f613197602c836127ad565b91506131a28261313d565b604082019050919050565b5f6020820190508181035f8301526131c48161318b565b9050919050565b7f4552433732313a20696e76616c696420746f6b656e20494400000000000000005f82015250565b5f6131ff6018836127ad565b915061320a826131cb565b602082019050919050565b5f6020820190508181035f83015261322c816131f3565b9050919050565b7f4552433732313a2061646472657373207a65726f206973206e6f7420612076615f8201527f6c6964206f776e65720000000000000000000000000000000000000000000000602082015250565b5f61328d6029836127ad565b915061329882613233565b604082019050919050565b5f6020820190508181035f8301526132ba81613281565b9050919050565b5f81905092915050565b5f6132d5826127a3565b6132df81856132c1565b93506132ef8185602086016127bd565b80840191505092915050565b5f61330682856132cb565b915061331282846132cb565b91508190509392505050565b7f446f6e6174696f6e20646f6573206e6f742065786973740000000000000000005f82015250565b5f6133526017836127ad565b915061335d8261331e565b602082019050919050565b5f6020820190508181035f83015261337f81613346565b9050919050565b7f416d6f756e7420746f6f206c6f770000000000000000000000000000000000005f82015250565b5f6133ba600e836127ad565b91506133c582613386565b602082019050919050565b5f6020820190508181035f8301526133e7816133ae565b9050919050565b7f4f776e61626c653a206e6577206f776e657220697320746865207a65726f20615f8201527f6464726573730000000000000000000000000000000000000000000000000000602082015250565b5f6134486026836127ad565b9150613453826133ee565b604082019050919050565b5f6020820190508181035f8301526134758161343c565b9050919050565b7f4552433732313a207472616e736665722066726f6d20696e636f7272656374205f8201527f6f776e6572000000000000000000000000000000000000000000000000000000602082015250565b5f6134d66025836127ad565b91506134e18261347c565b604082019050919050565b5f6020820190508181035f830152613503816134ca565b9050919050565b7f4552433732313a207472616e7366657220746f20746865207a65726f206164645f8201527f7265737300000000000000000000000000000000000000000000000000000000602082015250565b5f6135646024836127ad565b915061356f8261350a565b604082019050919050565b5f6020820190508181035f83015261359181613558565b9050919050565b7f4f776e61626c653a2063616c6c6572206973206e6f7420746865206f776e65725f82015250565b5f6135cc6020836127ad565b91506135d782613598565b602082019050919050565b5f6020820190508181035f8301526135f9816135c0565b9050919050565b7f4552433732313a20617070726f766520746f2063616c6c6572000000000000005f82015250565b5f6136346019836127ad565b915061363f82613600565b602082019050919050565b5f6020820190508181035f83015261366181613628565b9050919050565b7f4552433732313a207472616e7366657220746f206e6f6e2045524337323152655f8201527f63656976657220696d706c656d656e7465720000000000000000000000000000602082015250565b5f6136c26032836127ad565b91506136cd82613668565b604082019050919050565b5f6020820190508181035f8301526136ef816136b6565b9050919050565b7f4e487b71000000000000000000000000000000000000000000000000000000005f52601260045260245ffd5b7f5472616e73666572206e6f7420616c6c6f7765640000000000000000000000005f82015250565b5f6137576014836127ad565b915061376282613723565b602082019050919050565b5f6020820190508181035f8301526137848161374b565b9050919050565b5f81519050919050565b5f82825260208201905092915050565b5f6137af8261378b565b6137b98185613795565b93506137c98185602086016127bd565b6137d2816127e5565b840191505092915050565b5f6080820190506137f05f8301876128db565b6137fd60208301866128db565b61380a604083018561296b565b818103606083015261381c81846137a5565b905095945050505050565b5f815190506138358161271b565b92915050565b5f602082840312156138505761384f6126e8565b5b5f61385d84828501613827565b91505092915050565b7f455243373231456e756d657261626c653a20636f6e73656375746976652074725f8201527f616e7366657273206e6f7420737570706f727465640000000000000000000000602082015250565b5f6138c06035836127ad565b91506138cb82613866565b604082019050919050565b5f6020820190508181035f8301526138ed816138b4565b9050919050565b7f4552433732313a206d696e7420746f20746865207a65726f20616464726573735f82015250565b5f6139286020836127ad565b9150613933826138f4565b602082019050919050565b5f6020820190508181035f8301526139558161391c565b9050919050565b7f4552433732313a20746f6b656e20616c7265616479206d696e746564000000005f82015250565b5f613990601c836127ad565b915061399b8261395c565b602082019050919050565b5f6020820190508181035f8301526139bd81613984565b9050919050565b5f6139ce8261284d565b91506139d98361284d565b92508282039050818111156139f1576139f06130c9565b5b92915050565b7f4e487b71000000000000000000000000000000000000000000000000000000005f52603160045260245ffdfea26469706673582212209c93b63a326c5cd05d03b7c45b18be434510d17e39fa41097f1e57a3ff746baf64736f6c63430008140033",
  "devdoc": {
    "author": "Thomas for Alyra Certifaction",
    "details": "Implements donations in exchange for ERC721 tokens.",
    "events": {
      "Approval(address,address,uint256)": {
        "details": "Emitted when `owner` enables `approved` to manage the `tokenId` token."
      },
      "ApprovalForAll(address,address,bool)": {
        "details": "Emitted when `owner` enables or disables (`approved`) `operator` to manage all of its assets."
      },
      "NewDonation(address,uint256,uint256,uint256)": {
        "details": "Event emitted when a new donation is made"
      },
      "Transfer(address,address,uint256)": {
        "details": "Emitted when `tokenId` token is transferred from `from` to `to`."
      }
    },
    "kind": "dev",
    "methods": {
      "approve(address,uint256)": {
        "details": "See {IERC721-approve}."
      },
      "balanceOf(address)": {
        "details": "See {IERC721-balanceOf}."
      },
      "constructor": {
        "details": "Sets the name and symbol of the token"
      },
      "donate()": {
        "details": "Enables external accounts to make a donation and receive an ERC721 token"
      },
      "getApproved(uint256)": {
        "details": "See {IERC721-getApproved}."
      },
      "getDonationDetails(uint256)": {
        "details": "Returns the details of a specific donation"
      },
      "getPrice()": {
        "details": "Returns the current donation price"
      },
      "isApprovedForAll(address,address)": {
        "details": "See {IERC721-isApprovedForAll}."
      },
      "name()": {
        "details": "See {IERC721Metadata-name}."
      },
      "nbDonationsTotal()": {
        "details": "Returns the total number of donations made"
      },
      "owner()": {
        "details": "Returns the address of the current owner."
      },
      "ownerOf(uint256)": {
        "details": "See {IERC721-ownerOf}."
      },
      "renounceOwnership()": {
        "details": "Leaves the contract without owner. It will not be possible to call `onlyOwner` functions. Can only be called by the current owner. NOTE: Renouncing ownership will leave the contract without an owner, thereby disabling any functionality that is only available to the owner."
      },
      "safeTransferFrom(address,address,uint256)": {
        "details": "See {IERC721-safeTransferFrom}."
      },
      "safeTransferFrom(address,address,uint256,bytes)": {
        "details": "See {IERC721-safeTransferFrom}."
      },
      "setApprovalForAll(address,bool)": {
        "details": "See {IERC721-setApprovalForAll}."
      },
      "setPrice(uint256)": {
        "details": "Allows the owner to set a new donation price"
      },
      "supportsInterface(bytes4)": {
        "details": "Overrides supportsInterface to use multiple inheritance in contract"
      },
      "symbol()": {
        "details": "See {IERC721Metadata-symbol}."
      },
      "tokenByIndex(uint256)": {
        "details": "See {IERC721Enumerable-tokenByIndex}."
      },
      "tokenOfOwnerByIndex(address,uint256)": {
        "details": "See {IERC721Enumerable-tokenOfOwnerByIndex}."
      },
      "tokenURI(uint256)": {
        "details": "See {IERC721Metadata-tokenURI}."
      },
      "totalSupply()": {
        "details": "See {IERC721Enumerable-totalSupply}."
      },
      "transferFrom(address,address,uint256)": {
        "details": "See {IERC721-transferFrom}."
      },
      "transferOwnership(address)": {
        "details": "Transfers ownership of the contract to a new account (`newOwner`). Can only be called by the current owner."
      },
      "walletOfOwner(address)": {
        "details": "Returns a list of donation IDs for a given address"
      },
      "withdraw()": {
        "details": "Allows the owner to withdraw all funds from the contract"
      }
    },
    "title": "Donate contract",
    "version": 1
  },
  "userdoc": {
    "kind": "user",
    "methods": {},
    "version": 1
  },
  "storageLayout": {
    "storage": [
      {
        "astId": 138,
        "contract": "contracts/Donate.sol:Donate",
        "label": "_name",
        "offset": 0,
        "slot": "0",
        "type": "t_string_storage"
      },
      {
        "astId": 140,
        "contract": "contracts/Donate.sol:Donate",
        "label": "_symbol",
        "offset": 0,
        "slot": "1",
        "type": "t_string_storage"
      },
      {
        "astId": 144,
        "contract": "contracts/Donate.sol:Donate",
        "label": "_owners",
        "offset": 0,
        "slot": "2",
        "type": "t_mapping(t_uint256,t_address)"
      },
      {
        "astId": 148,
        "contract": "contracts/Donate.sol:Donate",
        "label": "_balances",
        "offset": 0,
        "slot": "3",
        "type": "t_mapping(t_address,t_uint256)"
      },
      {
        "astId": 152,
        "contract": "contracts/Donate.sol:Donate",
        "label": "_tokenApprovals",
        "offset": 0,
        "slot": "4",
        "type": "t_mapping(t_uint256,t_address)"
      },
      {
        "astId": 158,
        "contract": "contracts/Donate.sol:Donate",
        "label": "_operatorApprovals",
        "offset": 0,
        "slot": "5",
        "type": "t_mapping(t_address,t_mapping(t_address,t_bool))"
      },
      {
        "astId": 1188,
        "contract": "contracts/Donate.sol:Donate",
        "label": "_ownedTokens",
        "offset": 0,
        "slot": "6",
        "type": "t_mapping(t_address,t_mapping(t_uint256,t_uint256))"
      },
      {
        "astId": 1192,
        "contract": "contracts/Donate.sol:Donate",
        "label": "_ownedTokensIndex",
        "offset": 0,
        "slot": "7",
        "type": "t_mapping(t_uint256,t_uint256)"
      },
      {
        "astId": 1195,
        "contract": "contracts/Donate.sol:Donate",
        "label": "_allTokens",
        "offset": 0,
        "slot": "8",
        "type": "t_array(t_uint256)dyn_storage"
      },
      {
        "astId": 1199,
        "contract": "contracts/Donate.sol:Donate",
        "label": "_allTokensIndex",
        "offset": 0,
        "slot": "9",
        "type": "t_mapping(t_uint256,t_uint256)"
      },
      {
        "astId": 7,
        "contract": "contracts/Donate.sol:Donate",
        "label": "_owner",
        "offset": 0,
        "slot": "10",
        "type": "t_address"
      },
      {
        "astId": 3267,
        "contract": "contracts/Donate.sol:Donate",
        "label": "_donationIds",
        "offset": 0,
        "slot": "11",
        "type": "t_struct(Counter)1943_storage"
      },
      {
        "astId": 3277,
        "contract": "contracts/Donate.sol:Donate",
        "label": "donations",
        "offset": 0,
        "slot": "12",
        "type": "t_mapping(t_uint256,t_struct(Donation)3272_storage)"
      },
      {
        "astId": 3281,
        "contract": "contracts/Donate.sol:Donate",
        "label": "donationExists",
        "offset": 0,
        "slot": "13",
        "type": "t_mapping(t_uint256,t_bool)"
      },
      {
        "astId": 3295,
        "contract": "contracts/Donate.sol:Donate",
        "label": "_price",
        "offset": 0,
        "slot": "14",
        "type": "t_uint256"
      }
    ],
    "types": {
      "t_address": {
        "encoding": "inplace",
        "label": "address",
        "numberOfBytes": "20"
      },
      "t_array(t_uint256)dyn_storage": {
        "base": "t_uint256",
        "encoding": "dynamic_array",
        "label": "uint256[]",
        "numberOfBytes": "32"
      },
      "t_bool": {
        "encoding": "inplace",
        "label": "bool",
        "numberOfBytes": "1"
      },
      "t_mapping(t_address,t_bool)": {
        "encoding": "mapping",
        "key": "t_address",
        "label": "mapping(address => bool)",
        "numberOfBytes": "32",
        "value": "t_bool"
      },
      "t_mapping(t_address,t_mapping(t_address,t_bool))": {
        "encoding": "mapping",
        "key": "t_address",
        "label": "mapping(address => mapping(address => bool))",
        "numberOfBytes": "32",
        "value": "t_mapping(t_address,t_bool)"
      },
      "t_mapping(t_address,t_mapping(t_uint256,t_uint256))": {
        "encoding": "mapping",
        "key": "t_address",
        "label": "mapping(address => mapping(uint256 => uint256))",
        "numberOfBytes": "32",
        "value": "t_mapping(t_uint256,t_uint256)"
      },
      "t_mapping(t_address,t_uint256)": {
        "encoding": "mapping",
        "key": "t_address",
        "label": "mapping(address => uint256)",
        "numberOfBytes": "32",
        "value": "t_uint256"
      },
      "t_mapping(t_uint256,t_address)": {
        "encoding": "mapping",
        "key": "t_uint256",
        "label": "mapping(uint256 => address)",
        "numberOfBytes": "32",
        "value": "t_address"
      },
      "t_mapping(t_uint256,t_bool)": {
        "encoding": "mapping",
        "key": "t_uint256",
        "label": "mapping(uint256 => bool)",
        "numberOfBytes": "32",
        "value": "t_bool"
      },
      "t_mapping(t_uint256,t_struct(Donation)3272_storage)": {
        "encoding": "mapping",
        "key": "t_uint256",
        "label": "mapping(uint256 => struct Donate.Donation)",
        "numberOfBytes": "32",
        "value": "t_struct(Donation)3272_storage"
      },
      "t_mapping(t_uint256,t_uint256)": {
        "encoding": "mapping",
        "key": "t_uint256",
        "label": "mapping(uint256 => uint256)",
        "numberOfBytes": "32",
        "value": "t_uint256"
      },
      "t_string_storage": {
        "encoding": "bytes",
        "label": "string",
        "numberOfBytes": "32"
      },
      "t_struct(Counter)1943_storage": {
        "encoding": "inplace",
        "label": "struct Counters.Counter",
        "members": [
          {
            "astId": 1942,
            "contract": "contracts/Donate.sol:Donate",
            "label": "_value",
            "offset": 0,
            "slot": "0",
            "type": "t_uint256"
          }
        ],
        "numberOfBytes": "32"
      },
      "t_struct(Donation)3272_storage": {
        "encoding": "inplace",
        "label": "struct Donate.Donation",
        "members": [
          {
            "astId": 3269,
            "contract": "contracts/Donate.sol:Donate",
            "label": "amount",
            "offset": 0,
            "slot": "0",
            "type": "t_uint256"
          },
          {
            "astId": 3271,
            "contract": "contracts/Donate.sol:Donate",
            "label": "timestamp",
            "offset": 0,
            "slot": "1",
            "type": "t_uint256"
          }
        ],
        "numberOfBytes": "64"
      },
      "t_uint256": {
        "encoding": "inplace",
        "label": "uint256",
        "numberOfBytes": "32"
      }
    }
  }
}